{
  "contractName": "My1155Conbtract",
  "abi": [
    {
      "inputs": [
        {
          "internalType": "string",
          "name": "_url",
          "type": "string"
        }
      ],
      "stateMutability": "nonpayable",
      "type": "constructor"
    },
    {
      "anonymous": false,
      "inputs": [
        {
          "indexed": true,
          "internalType": "address",
          "name": "account",
          "type": "address"
        },
        {
          "indexed": true,
          "internalType": "address",
          "name": "operator",
          "type": "address"
        },
        {
          "indexed": false,
          "internalType": "bool",
          "name": "approved",
          "type": "bool"
        }
      ],
      "name": "ApprovalForAll",
      "type": "event"
    },
    {
      "anonymous": false,
      "inputs": [
        {
          "indexed": false,
          "internalType": "address",
          "name": "account",
          "type": "address"
        }
      ],
      "name": "Paused",
      "type": "event"
    },
    {
      "anonymous": false,
      "inputs": [
        {
          "indexed": true,
          "internalType": "bytes32",
          "name": "role",
          "type": "bytes32"
        },
        {
          "indexed": true,
          "internalType": "bytes32",
          "name": "previousAdminRole",
          "type": "bytes32"
        },
        {
          "indexed": true,
          "internalType": "bytes32",
          "name": "newAdminRole",
          "type": "bytes32"
        }
      ],
      "name": "RoleAdminChanged",
      "type": "event"
    },
    {
      "anonymous": false,
      "inputs": [
        {
          "indexed": true,
          "internalType": "bytes32",
          "name": "role",
          "type": "bytes32"
        },
        {
          "indexed": true,
          "internalType": "address",
          "name": "account",
          "type": "address"
        },
        {
          "indexed": true,
          "internalType": "address",
          "name": "sender",
          "type": "address"
        }
      ],
      "name": "RoleGranted",
      "type": "event"
    },
    {
      "anonymous": false,
      "inputs": [
        {
          "indexed": true,
          "internalType": "bytes32",
          "name": "role",
          "type": "bytes32"
        },
        {
          "indexed": true,
          "internalType": "address",
          "name": "account",
          "type": "address"
        },
        {
          "indexed": true,
          "internalType": "address",
          "name": "sender",
          "type": "address"
        }
      ],
      "name": "RoleRevoked",
      "type": "event"
    },
    {
      "anonymous": false,
      "inputs": [
        {
          "indexed": true,
          "internalType": "address",
          "name": "operator",
          "type": "address"
        },
        {
          "indexed": true,
          "internalType": "address",
          "name": "from",
          "type": "address"
        },
        {
          "indexed": true,
          "internalType": "address",
          "name": "to",
          "type": "address"
        },
        {
          "indexed": false,
          "internalType": "uint256[]",
          "name": "ids",
          "type": "uint256[]"
        },
        {
          "indexed": false,
          "internalType": "uint256[]",
          "name": "values",
          "type": "uint256[]"
        }
      ],
      "name": "TransferBatch",
      "type": "event"
    },
    {
      "anonymous": false,
      "inputs": [
        {
          "indexed": true,
          "internalType": "address",
          "name": "operator",
          "type": "address"
        },
        {
          "indexed": true,
          "internalType": "address",
          "name": "from",
          "type": "address"
        },
        {
          "indexed": true,
          "internalType": "address",
          "name": "to",
          "type": "address"
        },
        {
          "indexed": false,
          "internalType": "uint256",
          "name": "id",
          "type": "uint256"
        },
        {
          "indexed": false,
          "internalType": "uint256",
          "name": "value",
          "type": "uint256"
        }
      ],
      "name": "TransferSingle",
      "type": "event"
    },
    {
      "anonymous": false,
      "inputs": [
        {
          "indexed": false,
          "internalType": "string",
          "name": "value",
          "type": "string"
        },
        {
          "indexed": true,
          "internalType": "uint256",
          "name": "id",
          "type": "uint256"
        }
      ],
      "name": "URI",
      "type": "event"
    },
    {
      "anonymous": false,
      "inputs": [
        {
          "indexed": false,
          "internalType": "address",
          "name": "account",
          "type": "address"
        }
      ],
      "name": "Unpaused",
      "type": "event"
    },
    {
      "inputs": [],
      "name": "DEFAULT_ADMIN_ROLE",
      "outputs": [
        {
          "internalType": "bytes32",
          "name": "",
          "type": "bytes32"
        }
      ],
      "stateMutability": "view",
      "type": "function"
    },
    {
      "inputs": [],
      "name": "MINTER_ROLE",
      "outputs": [
        {
          "internalType": "bytes32",
          "name": "",
          "type": "bytes32"
        }
      ],
      "stateMutability": "view",
      "type": "function"
    },
    {
      "inputs": [],
      "name": "PAUSER_ROLE",
      "outputs": [
        {
          "internalType": "bytes32",
          "name": "",
          "type": "bytes32"
        }
      ],
      "stateMutability": "view",
      "type": "function"
    },
    {
      "inputs": [
        {
          "internalType": "address",
          "name": "account",
          "type": "address"
        },
        {
          "internalType": "uint256",
          "name": "id",
          "type": "uint256"
        }
      ],
      "name": "balanceOf",
      "outputs": [
        {
          "internalType": "uint256",
          "name": "",
          "type": "uint256"
        }
      ],
      "stateMutability": "view",
      "type": "function"
    },
    {
      "inputs": [
        {
          "internalType": "address[]",
          "name": "accounts",
          "type": "address[]"
        },
        {
          "internalType": "uint256[]",
          "name": "ids",
          "type": "uint256[]"
        }
      ],
      "name": "balanceOfBatch",
      "outputs": [
        {
          "internalType": "uint256[]",
          "name": "",
          "type": "uint256[]"
        }
      ],
      "stateMutability": "view",
      "type": "function"
    },
    {
      "inputs": [
        {
          "internalType": "address",
          "name": "account",
          "type": "address"
        },
        {
          "internalType": "uint256",
          "name": "id",
          "type": "uint256"
        },
        {
          "internalType": "uint256",
          "name": "value",
          "type": "uint256"
        }
      ],
      "name": "burn",
      "outputs": [],
      "stateMutability": "nonpayable",
      "type": "function"
    },
    {
      "inputs": [
        {
          "internalType": "address",
          "name": "account",
          "type": "address"
        },
        {
          "internalType": "uint256[]",
          "name": "ids",
          "type": "uint256[]"
        },
        {
          "internalType": "uint256[]",
          "name": "values",
          "type": "uint256[]"
        }
      ],
      "name": "burnBatch",
      "outputs": [],
      "stateMutability": "nonpayable",
      "type": "function"
    },
    {
      "inputs": [
        {
          "internalType": "bytes32",
          "name": "role",
          "type": "bytes32"
        }
      ],
      "name": "getRoleAdmin",
      "outputs": [
        {
          "internalType": "bytes32",
          "name": "",
          "type": "bytes32"
        }
      ],
      "stateMutability": "view",
      "type": "function"
    },
    {
      "inputs": [
        {
          "internalType": "bytes32",
          "name": "role",
          "type": "bytes32"
        },
        {
          "internalType": "uint256",
          "name": "index",
          "type": "uint256"
        }
      ],
      "name": "getRoleMember",
      "outputs": [
        {
          "internalType": "address",
          "name": "",
          "type": "address"
        }
      ],
      "stateMutability": "view",
      "type": "function"
    },
    {
      "inputs": [
        {
          "internalType": "bytes32",
          "name": "role",
          "type": "bytes32"
        }
      ],
      "name": "getRoleMemberCount",
      "outputs": [
        {
          "internalType": "uint256",
          "name": "",
          "type": "uint256"
        }
      ],
      "stateMutability": "view",
      "type": "function"
    },
    {
      "inputs": [
        {
          "internalType": "bytes32",
          "name": "role",
          "type": "bytes32"
        },
        {
          "internalType": "address",
          "name": "account",
          "type": "address"
        }
      ],
      "name": "grantRole",
      "outputs": [],
      "stateMutability": "nonpayable",
      "type": "function"
    },
    {
      "inputs": [
        {
          "internalType": "bytes32",
          "name": "role",
          "type": "bytes32"
        },
        {
          "internalType": "address",
          "name": "account",
          "type": "address"
        }
      ],
      "name": "hasRole",
      "outputs": [
        {
          "internalType": "bool",
          "name": "",
          "type": "bool"
        }
      ],
      "stateMutability": "view",
      "type": "function"
    },
    {
      "inputs": [
        {
          "internalType": "address",
          "name": "account",
          "type": "address"
        },
        {
          "internalType": "address",
          "name": "operator",
          "type": "address"
        }
      ],
      "name": "isApprovedForAll",
      "outputs": [
        {
          "internalType": "bool",
          "name": "",
          "type": "bool"
        }
      ],
      "stateMutability": "view",
      "type": "function"
    },
    {
      "inputs": [
        {
          "internalType": "address",
          "name": "to",
          "type": "address"
        },
        {
          "internalType": "uint256",
          "name": "id",
          "type": "uint256"
        },
        {
          "internalType": "uint256",
          "name": "amount",
          "type": "uint256"
        },
        {
          "internalType": "bytes",
          "name": "data",
          "type": "bytes"
        }
      ],
      "name": "mint",
      "outputs": [],
      "stateMutability": "nonpayable",
      "type": "function"
    },
    {
      "inputs": [
        {
          "internalType": "address",
          "name": "to",
          "type": "address"
        },
        {
          "internalType": "uint256[]",
          "name": "ids",
          "type": "uint256[]"
        },
        {
          "internalType": "uint256[]",
          "name": "amounts",
          "type": "uint256[]"
        },
        {
          "internalType": "bytes",
          "name": "data",
          "type": "bytes"
        }
      ],
      "name": "mintBatch",
      "outputs": [],
      "stateMutability": "nonpayable",
      "type": "function"
    },
    {
      "inputs": [],
      "name": "pause",
      "outputs": [],
      "stateMutability": "nonpayable",
      "type": "function"
    },
    {
      "inputs": [],
      "name": "paused",
      "outputs": [
        {
          "internalType": "bool",
          "name": "",
          "type": "bool"
        }
      ],
      "stateMutability": "view",
      "type": "function"
    },
    {
      "inputs": [
        {
          "internalType": "bytes32",
          "name": "role",
          "type": "bytes32"
        },
        {
          "internalType": "address",
          "name": "account",
          "type": "address"
        }
      ],
      "name": "renounceRole",
      "outputs": [],
      "stateMutability": "nonpayable",
      "type": "function"
    },
    {
      "inputs": [
        {
          "internalType": "bytes32",
          "name": "role",
          "type": "bytes32"
        },
        {
          "internalType": "address",
          "name": "account",
          "type": "address"
        }
      ],
      "name": "revokeRole",
      "outputs": [],
      "stateMutability": "nonpayable",
      "type": "function"
    },
    {
      "inputs": [
        {
          "internalType": "address",
          "name": "from",
          "type": "address"
        },
        {
          "internalType": "address",
          "name": "to",
          "type": "address"
        },
        {
          "internalType": "uint256[]",
          "name": "ids",
          "type": "uint256[]"
        },
        {
          "internalType": "uint256[]",
          "name": "amounts",
          "type": "uint256[]"
        },
        {
          "internalType": "bytes",
          "name": "data",
          "type": "bytes"
        }
      ],
      "name": "safeBatchTransferFrom",
      "outputs": [],
      "stateMutability": "nonpayable",
      "type": "function"
    },
    {
      "inputs": [
        {
          "internalType": "address",
          "name": "from",
          "type": "address"
        },
        {
          "internalType": "address",
          "name": "to",
          "type": "address"
        },
        {
          "internalType": "uint256",
          "name": "id",
          "type": "uint256"
        },
        {
          "internalType": "uint256",
          "name": "amount",
          "type": "uint256"
        },
        {
          "internalType": "bytes",
          "name": "data",
          "type": "bytes"
        }
      ],
      "name": "safeTransferFrom",
      "outputs": [],
      "stateMutability": "nonpayable",
      "type": "function"
    },
    {
      "inputs": [
        {
          "internalType": "address",
          "name": "operator",
          "type": "address"
        },
        {
          "internalType": "bool",
          "name": "approved",
          "type": "bool"
        }
      ],
      "name": "setApprovalForAll",
      "outputs": [],
      "stateMutability": "nonpayable",
      "type": "function"
    },
    {
      "inputs": [
        {
          "internalType": "bytes4",
          "name": "interfaceId",
          "type": "bytes4"
        }
      ],
      "name": "supportsInterface",
      "outputs": [
        {
          "internalType": "bool",
          "name": "",
          "type": "bool"
        }
      ],
      "stateMutability": "view",
      "type": "function"
    },
    {
      "inputs": [],
      "name": "unpause",
      "outputs": [],
      "stateMutability": "nonpayable",
      "type": "function"
    },
    {
      "inputs": [
        {
          "internalType": "uint256",
          "name": "",
          "type": "uint256"
        }
      ],
      "name": "uri",
      "outputs": [
        {
          "internalType": "string",
          "name": "",
          "type": "string"
        }
      ],
      "stateMutability": "view",
      "type": "function"
    },
    {
      "inputs": [
        {
          "internalType": "address",
          "name": "operator",
          "type": "address"
        },
        {
          "internalType": "address",
          "name": "from",
          "type": "address"
        },
        {
          "internalType": "uint256",
          "name": "id",
          "type": "uint256"
        },
        {
          "internalType": "uint256",
          "name": "value",
          "type": "uint256"
        },
        {
          "internalType": "bytes",
          "name": "data",
          "type": "bytes"
        }
      ],
      "name": "onERC1155Received",
      "outputs": [
        {
          "internalType": "bytes4",
          "name": "",
          "type": "bytes4"
        }
      ],
      "stateMutability": "pure",
      "type": "function"
    },
    {
      "inputs": [
        {
          "internalType": "address",
          "name": "operator",
          "type": "address"
        },
        {
          "internalType": "address",
          "name": "from",
          "type": "address"
        },
        {
          "internalType": "uint256[]",
          "name": "ids",
          "type": "uint256[]"
        },
        {
          "internalType": "uint256[]",
          "name": "values",
          "type": "uint256[]"
        },
        {
          "internalType": "bytes",
          "name": "data",
          "type": "bytes"
        }
      ],
      "name": "onERC1155BatchReceived",
      "outputs": [
        {
          "internalType": "bytes4",
          "name": "",
          "type": "bytes4"
        }
      ],
      "stateMutability": "pure",
      "type": "function"
    }
  ],
  "bytecode": "0x60806040523480156200001157600080fd5b5060405162002ff938038062002ff98339810160408190526200003491620002e9565b80806200004181620000b9565b506005805460ff1916905562000059600033620000d2565b620000857f9f2df0fed2c77648de5860a4cc508cd0818c85b8b8a1ab4ceeef8d981c8956a633620000d2565b620000b17f65d7a28e3265b37a6474929f336521b332c1681b933f6cb9f3376673440d862a33620000d2565b505062000402565b8051620000ce9060049060208401906200022d565b5050565b620000ce8282620000ef82826200011b60201b62000b631760201c565b60008281526001602090815260409091206200011691839062000be7620001bb821b17901c565b505050565b6000828152602081815260408083206001600160a01b038516845290915290205460ff16620000ce576000828152602081815260408083206001600160a01b03851684529091529020805460ff19166001179055620001773390565b6001600160a01b0316816001600160a01b0316837f2f8788117e7eff1d82e926ec794901d17c78024a50270940304540a733656f0d60405160405180910390a45050565b6000620001d2836001600160a01b038416620001db565b90505b92915050565b60008181526001830160205260408120546200022457508154600181810184556000848152602080822090930184905584548482528286019093526040902091909155620001d5565b506000620001d5565b8280546200023b90620003c5565b90600052602060002090601f0160209004810192826200025f5760008555620002aa565b82601f106200027a57805160ff1916838001178555620002aa565b82800160010185558215620002aa579182015b82811115620002aa5782518255916020019190600101906200028d565b50620002b8929150620002bc565b5090565b5b80821115620002b85760008155600101620002bd565b634e487b7160e01b600052604160045260246000fd5b60006020808385031215620002fd57600080fd5b82516001600160401b03808211156200031557600080fd5b818501915085601f8301126200032a57600080fd5b8151818111156200033f576200033f620002d3565b604051601f8201601f19908116603f011681019083821181831017156200036a576200036a620002d3565b8160405282815288868487010111156200038357600080fd5b600093505b82841015620003a7578484018601518185018701529285019262000388565b82841115620003b95760008684830101525b98975050505050505050565b600181811c90821680620003da57607f821691505b60208210811415620003fc57634e487b7160e01b600052602260045260246000fd5b50919050565b612be780620004126000396000f3fe608060405234801561001057600080fd5b50600436106101a85760003560e01c80638456cb59116100f9578063d539139311610097578063e985e9c511610071578063e985e9c5146103f0578063f23a6e611461042c578063f242432a1461044c578063f5298aca1461045f57600080fd5b8063d53913931461038f578063d547741f146103b6578063e63ab1e9146103c957600080fd5b8063a217fddf116100d3578063a217fddf14610326578063a22cb4651461032e578063bc197c8114610341578063ca15c8731461037c57600080fd5b80638456cb59146102e05780639010d07c146102e857806391d148541461031357600080fd5b80632f2ff15d116101665780634e1273f4116101405780634e1273f41461028f5780635c975abb146102af5780636b20c454146102ba578063731133e9146102cd57600080fd5b80632f2ff15d1461026157806336568abe146102745780633f4ba83a1461028757600080fd5b8062fdd58e146101ad57806301ffc9a7146101d35780630e89341c146101f65780631f7fdffa14610216578063248a9ca31461022b5780632eb2c2d61461024e575b600080fd5b6101c06101bb366004611dcd565b610472565b6040519081526020015b60405180910390f35b6101e66101e1366004611e0d565b61050e565b60405190151581526020016101ca565b610209610204366004611e2a565b610519565b6040516101ca9190611e9b565b610229610224366004611ff7565b6105ad565b005b6101c0610239366004611e2a565b60009081526020819052604090206001015490565b61022961025c36600461208f565b610605565b61022961026f366004612138565b61069c565b610229610282366004612138565b6106c6565b610229610744565b6102a261029d366004612164565b6107ea565b6040516101ca9190612269565b60055460ff166101e6565b6102296102c836600461227c565b610913565b6102296102db3660046122ef565b610956565b6102296109a8565b6102fb6102f6366004612343565b610a4c565b6040516001600160a01b0390911681526020016101ca565b6101e6610321366004612138565b610a6b565b6101c0600081565b61022961033c366004612365565b610a94565b61036361034f36600461242d565b63bc197c8160e01b98975050505050505050565b6040516001600160e01b031990911681526020016101ca565b6101c061038a366004611e2a565b610a9f565b6101c07f9f2df0fed2c77648de5860a4cc508cd0818c85b8b8a1ab4ceeef8d981c8956a681565b6102296103c4366004612138565b610ab6565b6101c07f65d7a28e3265b37a6474929f336521b332c1681b933f6cb9f3376673440d862a81565b6101e66103fe3660046124e7565b6001600160a01b03918216600090815260036020908152604080832093909416825291909152205460ff1690565b61036361043a366004612511565b63f23a6e6160e01b9695505050505050565b61022961045a366004612588565b610adb565b61022961046d3660046125ec565b610b20565b60006001600160a01b0383166104e35760405162461bcd60e51b815260206004820152602b60248201527f455243313135353a2062616c616e636520717565727920666f7220746865207a60448201526a65726f206164647265737360a81b60648201526084015b60405180910390fd5b5060008181526002602090815260408083206001600160a01b03861684529091529020545b92915050565b600061050882610bfc565b6060600480546105289061261f565b80601f01602080910402602001604051908101604052809291908181526020018280546105549061261f565b80156105a15780601f10610576576101008083540402835291602001916105a1565b820191906000526020600020905b81548152906001019060200180831161058457829003601f168201915b50505050509050919050565b6105d77f9f2df0fed2c77648de5860a4cc508cd0818c85b8b8a1ab4ceeef8d981c8956a633610a6b565b6105f35760405162461bcd60e51b81526004016104da9061265a565b6105ff84848484610c3c565b50505050565b6001600160a01b038516331480610621575061062185336103fe565b6106885760405162461bcd60e51b815260206004820152603260248201527f455243313135353a207472616e736665722063616c6c6572206973206e6f74206044820152711bdddb995c881b9bdc88185c1c1c9bdd995960721b60648201526084016104da565b6106958585858585610d97565b5050505050565b6000828152602081905260409020600101546106b781610f44565b6106c18383610f51565b505050565b6001600160a01b03811633146107365760405162461bcd60e51b815260206004820152602f60248201527f416363657373436f6e74726f6c3a2063616e206f6e6c792072656e6f756e636560448201526e103937b632b9903337b91039b2b63360891b60648201526084016104da565b6107408282610f73565b5050565b61076e7f65d7a28e3265b37a6474929f336521b332c1681b933f6cb9f3376673440d862a33610a6b565b6107e05760405162461bcd60e51b815260206004820152603b60248201527f455243313135355072657365744d696e7465725061757365723a206d7573742060448201527f686176652070617573657220726f6c6520746f20756e7061757365000000000060648201526084016104da565b6107e8610f95565b565b6060815183511461084f5760405162461bcd60e51b815260206004820152602960248201527f455243313135353a206163636f756e747320616e6420696473206c656e677468604482015268040dad2e6dac2e8c6d60bb1b60648201526084016104da565b600083516001600160401b0381111561086a5761086a611eae565b604051908082528060200260200182016040528015610893578160200160208202803683370190505b50905060005b845181101561090b576108de8582815181106108b7576108b76126b7565b60200260200101518583815181106108d1576108d16126b7565b6020026020010151610472565b8282815181106108f0576108f06126b7565b6020908102919091010152610904816126e3565b9050610899565b509392505050565b6001600160a01b03831633148061092f575061092f83336103fe565b61094b5760405162461bcd60e51b81526004016104da906126fe565b6106c1838383611028565b6109807f9f2df0fed2c77648de5860a4cc508cd0818c85b8b8a1ab4ceeef8d981c8956a633610a6b565b61099c5760405162461bcd60e51b81526004016104da9061265a565b6105ff848484846111c7565b6109d27f65d7a28e3265b37a6474929f336521b332c1681b933f6cb9f3376673440d862a33610a6b565b610a445760405162461bcd60e51b815260206004820152603960248201527f455243313135355072657365744d696e7465725061757365723a206d7573742060448201527f686176652070617573657220726f6c6520746f2070617573650000000000000060648201526084016104da565b6107e86112b2565b6000828152600160205260408120610a64908361132d565b9392505050565b6000918252602082815260408084206001600160a01b0393909316845291905290205460ff1690565b610740338383611339565b60008181526001602052604081206105089061141a565b600082815260208190526040902060010154610ad181610f44565b6106c18383610f73565b6001600160a01b038516331480610af75750610af785336103fe565b610b135760405162461bcd60e51b81526004016104da906126fe565b6106958585858585611424565b6001600160a01b038316331480610b3c5750610b3c83336103fe565b610b585760405162461bcd60e51b81526004016104da906126fe565b6106c1838383611560565b610b6d8282610a6b565b610740576000828152602081815260408083206001600160a01b03851684529091529020805460ff19166001179055610ba33390565b6001600160a01b0316816001600160a01b0316837f2f8788117e7eff1d82e926ec794901d17c78024a50270940304540a733656f0d60405160405180910390a45050565b6000610a64836001600160a01b03841661167c565b60006001600160e01b03198216636cdb3d1360e11b1480610c2d57506001600160e01b031982166303a24d0760e21b145b806105085750610508826116cb565b6001600160a01b038416610c625760405162461bcd60e51b81526004016104da90612747565b8151835114610c835760405162461bcd60e51b81526004016104da90612788565b33610c93816000878787876116f0565b60005b8451811015610d2f57838181518110610cb157610cb16126b7565b602002602001015160026000878481518110610ccf57610ccf6126b7565b602002602001015181526020019081526020016000206000886001600160a01b03166001600160a01b031681526020019081526020016000206000828254610d1791906127d0565b90915550819050610d27816126e3565b915050610c96565b50846001600160a01b031660006001600160a01b0316826001600160a01b03167f4a39dc06d4c0dbc64b70af90fd698a233a518aa5d07e595d983b8c0526c8f7fb8787604051610d809291906127e8565b60405180910390a4610695816000878787876116fe565b8151835114610db85760405162461bcd60e51b81526004016104da90612788565b6001600160a01b038416610dde5760405162461bcd60e51b81526004016104da90612816565b33610ded8187878787876116f0565b60005b8451811015610ed6576000858281518110610e0d57610e0d6126b7565b602002602001015190506000858381518110610e2b57610e2b6126b7565b60209081029190910181015160008481526002835260408082206001600160a01b038e168352909352919091205490915081811015610e7c5760405162461bcd60e51b81526004016104da9061285b565b60008381526002602090815260408083206001600160a01b038e8116855292528083208585039055908b16825281208054849290610ebb9084906127d0565b9250508190555050505080610ecf906126e3565b9050610df0565b50846001600160a01b0316866001600160a01b0316826001600160a01b03167f4a39dc06d4c0dbc64b70af90fd698a233a518aa5d07e595d983b8c0526c8f7fb8787604051610f269291906127e8565b60405180910390a4610f3c8187878787876116fe565b505050505050565b610f4e8133611869565b50565b610f5b8282610b63565b60008281526001602052604090206106c19082610be7565b610f7d82826118cd565b60008281526001602052604090206106c19082611932565b60055460ff16610fde5760405162461bcd60e51b815260206004820152601460248201527314185d5cd8589b194e881b9bdd081c185d5cd95960621b60448201526064016104da565b6005805460ff191690557f5db9ee0a495bf2e6ff9c91a7834c1ba4fdd244a5e8aa4e537bd38aeae4b073aa335b6040516001600160a01b03909116815260200160405180910390a1565b6001600160a01b03831661104e5760405162461bcd60e51b81526004016104da906128a5565b805182511461106f5760405162461bcd60e51b81526004016104da90612788565b6000339050611092818560008686604051806020016040528060008152506116f0565b60005b835181101561115a5760008482815181106110b2576110b26126b7565b6020026020010151905060008483815181106110d0576110d06126b7565b60209081029190910181015160008481526002835260408082206001600160a01b038c1683529093529190912054909150818110156111215760405162461bcd60e51b81526004016104da906128e8565b60009283526002602090815260408085206001600160a01b038b1686529091529092209103905580611152816126e3565b915050611095565b5060006001600160a01b0316846001600160a01b0316826001600160a01b03167f4a39dc06d4c0dbc64b70af90fd698a233a518aa5d07e595d983b8c0526c8f7fb86866040516111ab9291906127e8565b60405180910390a46040805160208101909152600090526105ff565b6001600160a01b0384166111ed5760405162461bcd60e51b81526004016104da90612747565b3360006111f985611947565b9050600061120685611947565b9050611217836000898585896116f0565b60008681526002602090815260408083206001600160a01b038b168452909152812080548792906112499084906127d0565b909155505060408051878152602081018790526001600160a01b03808a1692600092918716917fc3d58168c5ae7397731d063d5bbf3d657854427343f4c083240f7aacaa2d0f62910160405180910390a46112a983600089898989611992565b50505050505050565b60055460ff16156112f85760405162461bcd60e51b815260206004820152601060248201526f14185d5cd8589b194e881c185d5cd95960821b60448201526064016104da565b6005805460ff191660011790557f62e78cea01bee320cd4e420270b5ea74000d11b0c9f74754ebdbfc544b05a25861100b3390565b6000610a648383611a5c565b816001600160a01b0316836001600160a01b031614156113ad5760405162461bcd60e51b815260206004820152602960248201527f455243313135353a2073657474696e6720617070726f76616c20737461747573604482015268103337b91039b2b63360b91b60648201526084016104da565b6001600160a01b03838116600081815260036020908152604080832094871680845294825291829020805460ff191686151590811790915591519182527f17307eab39ab6107e8899845ad3d59bd9653f200f220920489ca2b5937696c31910160405180910390a3505050565b6000610508825490565b6001600160a01b03841661144a5760405162461bcd60e51b81526004016104da90612816565b33600061145685611947565b9050600061146385611947565b90506114738389898585896116f0565b60008681526002602090815260408083206001600160a01b038c168452909152902054858110156114b65760405162461bcd60e51b81526004016104da9061285b565b60008781526002602090815260408083206001600160a01b038d8116855292528083208985039055908a168252812080548892906114f59084906127d0565b909155505060408051888152602081018890526001600160a01b03808b16928c821692918816917fc3d58168c5ae7397731d063d5bbf3d657854427343f4c083240f7aacaa2d0f62910160405180910390a4611555848a8a8a8a8a611992565b505050505050505050565b6001600160a01b0383166115865760405162461bcd60e51b81526004016104da906128a5565b33600061159284611947565b9050600061159f84611947565b90506115bf838760008585604051806020016040528060008152506116f0565b60008581526002602090815260408083206001600160a01b038a168452909152902054848110156116025760405162461bcd60e51b81526004016104da906128e8565b60008681526002602090815260408083206001600160a01b038b81168086529184528285208a8703905582518b81529384018a90529092908816917fc3d58168c5ae7397731d063d5bbf3d657854427343f4c083240f7aacaa2d0f62910160405180910390a46040805160208101909152600090526112a9565b60008181526001830160205260408120546116c357508154600181810184556000848152602080822090930184905584548482528286019093526040902091909155610508565b506000610508565b60006001600160e01b03198216635a05180f60e01b1480610508575061050882611a86565b610f3c868686868686611abb565b6001600160a01b0384163b15610f3c5760405163bc197c8160e01b81526001600160a01b0385169063bc197c8190611742908990899088908890889060040161292c565b602060405180830381600087803b15801561175c57600080fd5b505af192505050801561178c575060408051601f3d908101601f191682019092526117899181019061298a565b60015b611839576117986129a7565b806308c379a014156117d257506117ad6129c3565b806117b857506117d4565b8060405162461bcd60e51b81526004016104da9190611e9b565b505b60405162461bcd60e51b815260206004820152603460248201527f455243313135353a207472616e7366657220746f206e6f6e20455243313135356044820152732932b1b2b4bb32b91034b6b83632b6b2b73a32b960611b60648201526084016104da565b6001600160e01b0319811663bc197c8160e01b146112a95760405162461bcd60e51b81526004016104da90612a4c565b6118738282610a6b565b6107405761188b816001600160a01b03166014611b23565b611896836020611b23565b6040516020016118a7929190612a94565b60408051601f198184030181529082905262461bcd60e51b82526104da91600401611e9b565b6118d78282610a6b565b15610740576000828152602081815260408083206001600160a01b0385168085529252808320805460ff1916905551339285917ff6391f5c32d9c69d2a47ea670b442974b53935d1edc7fd64eb21e047a839171b9190a45050565b6000610a64836001600160a01b038416611cbe565b60408051600180825281830190925260609160009190602080830190803683370190505090508281600081518110611981576119816126b7565b602090810291909101015292915050565b6001600160a01b0384163b15610f3c5760405163f23a6e6160e01b81526001600160a01b0385169063f23a6e61906119d69089908990889088908890600401612b09565b602060405180830381600087803b1580156119f057600080fd5b505af1925050508015611a20575060408051601f3d908101601f19168201909252611a1d9181019061298a565b60015b611a2c576117986129a7565b6001600160e01b0319811663f23a6e6160e01b146112a95760405162461bcd60e51b81526004016104da90612a4c565b6000826000018281548110611a7357611a736126b7565b9060005260206000200154905092915050565b60006001600160e01b03198216637965db0b60e01b148061050857506301ffc9a760e01b6001600160e01b0319831614610508565b60055460ff1615610f3c5760405162461bcd60e51b815260206004820152602c60248201527f455243313135355061757361626c653a20746f6b656e207472616e736665722060448201526b1dda1a5b19481c185d5cd95960a21b60648201526084016104da565b60606000611b32836002612b4e565b611b3d9060026127d0565b6001600160401b03811115611b5457611b54611eae565b6040519080825280601f01601f191660200182016040528015611b7e576020820181803683370190505b509050600360fc1b81600081518110611b9957611b996126b7565b60200101906001600160f81b031916908160001a905350600f60fb1b81600181518110611bc857611bc86126b7565b60200101906001600160f81b031916908160001a9053506000611bec846002612b4e565b611bf79060016127d0565b90505b6001811115611c6f576f181899199a1a9b1b9c1cb0b131b232b360811b85600f1660108110611c2b57611c2b6126b7565b1a60f81b828281518110611c4157611c416126b7565b60200101906001600160f81b031916908160001a90535060049490941c93611c6881612b6d565b9050611bfa565b508315610a645760405162461bcd60e51b815260206004820181905260248201527f537472696e67733a20686578206c656e67746820696e73756666696369656e7460448201526064016104da565b60008181526001830160205260408120548015611da7576000611ce2600183612b84565b8554909150600090611cf690600190612b84565b9050818114611d5b576000866000018281548110611d1657611d166126b7565b9060005260206000200154905080876000018481548110611d3957611d396126b7565b6000918252602080832090910192909255918252600188019052604090208390555b8554869080611d6c57611d6c612b9b565b600190038181906000526020600020016000905590558560010160008681526020019081526020016000206000905560019350505050610508565b6000915050610508565b80356001600160a01b0381168114611dc857600080fd5b919050565b60008060408385031215611de057600080fd5b611de983611db1565b946020939093013593505050565b6001600160e01b031981168114610f4e57600080fd5b600060208284031215611e1f57600080fd5b8135610a6481611df7565b600060208284031215611e3c57600080fd5b5035919050565b60005b83811015611e5e578181015183820152602001611e46565b838111156105ff5750506000910152565b60008151808452611e87816020860160208601611e43565b601f01601f19169290920160200192915050565b602081526000610a646020830184611e6f565b634e487b7160e01b600052604160045260246000fd5b601f8201601f191681016001600160401b0381118282101715611ee957611ee9611eae565b6040525050565b60006001600160401b03821115611f0957611f09611eae565b5060051b60200190565b600082601f830112611f2457600080fd5b81356020611f3182611ef0565b604051611f3e8282611ec4565b83815260059390931b8501820192828101915086841115611f5e57600080fd5b8286015b84811015611f795780358352918301918301611f62565b509695505050505050565b600082601f830112611f9557600080fd5b81356001600160401b03811115611fae57611fae611eae565b604051611fc5601f8301601f191660200182611ec4565b818152846020838601011115611fda57600080fd5b816020850160208301376000918101602001919091529392505050565b6000806000806080858703121561200d57600080fd5b61201685611db1565b935060208501356001600160401b038082111561203257600080fd5b61203e88838901611f13565b9450604087013591508082111561205457600080fd5b61206088838901611f13565b9350606087013591508082111561207657600080fd5b5061208387828801611f84565b91505092959194509250565b600080600080600060a086880312156120a757600080fd5b6120b086611db1565b94506120be60208701611db1565b935060408601356001600160401b03808211156120da57600080fd5b6120e689838a01611f13565b945060608801359150808211156120fc57600080fd5b61210889838a01611f13565b9350608088013591508082111561211e57600080fd5b5061212b88828901611f84565b9150509295509295909350565b6000806040838503121561214b57600080fd5b8235915061215b60208401611db1565b90509250929050565b6000806040838503121561217757600080fd5b82356001600160401b038082111561218e57600080fd5b818501915085601f8301126121a257600080fd5b813560206121af82611ef0565b6040516121bc8282611ec4565b83815260059390931b85018201928281019150898411156121dc57600080fd5b948201945b83861015612201576121f286611db1565b825294820194908201906121e1565b9650508601359250508082111561221757600080fd5b5061222485828601611f13565b9150509250929050565b600081518084526020808501945080840160005b8381101561225e57815187529582019590820190600101612242565b509495945050505050565b602081526000610a64602083018461222e565b60008060006060848603121561229157600080fd5b61229a84611db1565b925060208401356001600160401b03808211156122b657600080fd5b6122c287838801611f13565b935060408601359150808211156122d857600080fd5b506122e586828701611f13565b9150509250925092565b6000806000806080858703121561230557600080fd5b61230e85611db1565b9350602085013592506040850135915060608501356001600160401b0381111561233757600080fd5b61208387828801611f84565b6000806040838503121561235657600080fd5b50508035926020909101359150565b6000806040838503121561237857600080fd5b61238183611db1565b91506020830135801515811461239657600080fd5b809150509250929050565b60008083601f8401126123b357600080fd5b5081356001600160401b038111156123ca57600080fd5b6020830191508360208260051b85010111156123e557600080fd5b9250929050565b60008083601f8401126123fe57600080fd5b5081356001600160401b0381111561241557600080fd5b6020830191508360208285010111156123e557600080fd5b60008060008060008060008060a0898b03121561244957600080fd5b61245289611db1565b975061246060208a01611db1565b965060408901356001600160401b038082111561247c57600080fd5b6124888c838d016123a1565b909850965060608b01359150808211156124a157600080fd5b6124ad8c838d016123a1565b909650945060808b01359150808211156124c657600080fd5b506124d38b828c016123ec565b999c989b5096995094979396929594505050565b600080604083850312156124fa57600080fd5b61250383611db1565b915061215b60208401611db1565b60008060008060008060a0878903121561252a57600080fd5b61253387611db1565b955061254160208801611db1565b9450604087013593506060870135925060808701356001600160401b0381111561256a57600080fd5b61257689828a016123ec565b979a9699509497509295939492505050565b600080600080600060a086880312156125a057600080fd5b6125a986611db1565b94506125b760208701611db1565b9350604086013592506060860135915060808601356001600160401b038111156125e057600080fd5b61212b88828901611f84565b60008060006060848603121561260157600080fd5b61260a84611db1565b95602085013595506040909401359392505050565b600181811c9082168061263357607f821691505b6020821081141561265457634e487b7160e01b600052602260045260246000fd5b50919050565b60208082526038908201527f455243313135355072657365744d696e7465725061757365723a206d7573742060408201527f68617665206d696e74657220726f6c6520746f206d696e740000000000000000606082015260800190565b634e487b7160e01b600052603260045260246000fd5b634e487b7160e01b600052601160045260246000fd5b60006000198214156126f7576126f76126cd565b5060010190565b60208082526029908201527f455243313135353a2063616c6c6572206973206e6f74206f776e6572206e6f7260408201526808185c1c1c9bdd995960ba1b606082015260800190565b60208082526021908201527f455243313135353a206d696e7420746f20746865207a65726f206164647265736040820152607360f81b606082015260800190565b60208082526028908201527f455243313135353a2069647320616e6420616d6f756e7473206c656e677468206040820152670dad2e6dac2e8c6d60c31b606082015260800190565b600082198211156127e3576127e36126cd565b500190565b6040815260006127fb604083018561222e565b828103602084015261280d818561222e565b95945050505050565b60208082526025908201527f455243313135353a207472616e7366657220746f20746865207a65726f206164604082015264647265737360d81b606082015260800190565b6020808252602a908201527f455243313135353a20696e73756666696369656e742062616c616e636520666f60408201526939103a3930b739b332b960b11b606082015260800190565b60208082526023908201527f455243313135353a206275726e2066726f6d20746865207a65726f206164647260408201526265737360e81b606082015260800190565b60208082526024908201527f455243313135353a206275726e20616d6f756e7420657863656564732062616c604082015263616e636560e01b606082015260800190565b6001600160a01b0386811682528516602082015260a0604082018190526000906129589083018661222e565b828103606084015261296a818661222e565b9050828103608084015261297e8185611e6f565b98975050505050505050565b60006020828403121561299c57600080fd5b8151610a6481611df7565b600060033d11156129c05760046000803e5060005160e01c5b90565b600060443d10156129d15790565b6040516003193d81016004833e81513d6001600160401b038160248401118184111715612a0057505050505090565b8285019150815181811115612a185750505050505090565b843d8701016020828501011115612a325750505050505090565b612a4160208286010187611ec4565b509095945050505050565b60208082526028908201527f455243313135353a204552433131353552656365697665722072656a656374656040820152676420746f6b656e7360c01b606082015260800190565b7f416363657373436f6e74726f6c3a206163636f756e7420000000000000000000815260008351612acc816017850160208801611e43565b7001034b99036b4b9b9b4b733903937b6329607d1b6017918401918201528351612afd816028840160208801611e43565b01602801949350505050565b6001600160a01b03868116825285166020820152604081018490526060810183905260a060808201819052600090612b4390830184611e6f565b979650505050505050565b6000816000190483118215151615612b6857612b686126cd565b500290565b600081612b7c57612b7c6126cd565b506000190190565b600082821015612b9657612b966126cd565b500390565b634e487b7160e01b600052603160045260246000fdfea2646970667358221220eb9ddecb7fa0239e61f74d3aba095a1ec82c686d36499420e5882caa60384f1f64736f6c63430008090033",
  "immutableReferences": {},
  "source": "// SPDX-License-Identifier: MIT\npragma solidity >=0.4.21 <8.10.0;\n\nimport \"@openzeppelin/contracts/token/ERC1155/IERC1155.sol\";\nimport \"@openzeppelin/contracts/token/ERC1155/ERC1155.sol\";\nimport \"@openzeppelin/contracts/token/ERC1155/presets/ERC1155PresetMinterPauser.sol\";\nimport \"@openzeppelin/contracts/token/ERC1155/IERC1155Receiver.sol\";\n\ncontract My1155Conbtract is ERC1155PresetMinterPauser, IERC1155Receiver {\n    constructor(string memory _url) ERC1155PresetMinterPauser(_url) {}\n\n    function onERC1155Received(\n        address operator,\n        address from,\n        uint256 id,\n        uint256 value,\n        bytes calldata data\n    ) external pure override returns (bytes4) {\n        return this.onERC1155Received.selector;\n    }\n\n    function onERC1155BatchReceived(\n        address operator,\n        address from,\n        uint256[] calldata ids,\n        uint256[] calldata values,\n        bytes calldata data\n    ) external pure override returns (bytes4) {\n        return this.onERC1155BatchReceived.selector;\n    }\n}\n",
  "sourcePath": "/Users/libaozhong/study/solidity/aution/contracts/My1155Contract.sol",
  "compiler": {
    "name": "solc",
    "version": "0.8.9+commit.e5eed63a.Emscripten.clang"
  },
  "schemaVersion": "3.4.5",
  "updatedAt": "2022-06-17T06:28:09.027Z",
  "devdoc": {
    "kind": "dev",
    "methods": {
      "balanceOf(address,uint256)": {
        "details": "See {IERC1155-balanceOf}. Requirements: - `account` cannot be the zero address."
      },
      "balanceOfBatch(address[],uint256[])": {
        "details": "See {IERC1155-balanceOfBatch}. Requirements: - `accounts` and `ids` must have the same length."
      },
      "getRoleAdmin(bytes32)": {
        "details": "Returns the admin role that controls `role`. See {grantRole} and {revokeRole}. To change a role's admin, use {_setRoleAdmin}."
      },
      "getRoleMember(bytes32,uint256)": {
        "details": "Returns one of the accounts that have `role`. `index` must be a value between 0 and {getRoleMemberCount}, non-inclusive. Role bearers are not sorted in any particular way, and their ordering may change at any point. WARNING: When using {getRoleMember} and {getRoleMemberCount}, make sure you perform all queries on the same block. See the following https://forum.openzeppelin.com/t/iterating-over-elements-on-enumerableset-in-openzeppelin-contracts/2296[forum post] for more information."
      },
      "getRoleMemberCount(bytes32)": {
        "details": "Returns the number of accounts that have `role`. Can be used together with {getRoleMember} to enumerate all bearers of a role."
      },
      "grantRole(bytes32,address)": {
        "details": "Grants `role` to `account`. If `account` had not been already granted `role`, emits a {RoleGranted} event. Requirements: - the caller must have ``role``'s admin role."
      },
      "hasRole(bytes32,address)": {
        "details": "Returns `true` if `account` has been granted `role`."
      },
      "isApprovedForAll(address,address)": {
        "details": "See {IERC1155-isApprovedForAll}."
      },
      "mint(address,uint256,uint256,bytes)": {
        "details": "Creates `amount` new tokens for `to`, of token type `id`. See {ERC1155-_mint}. Requirements: - the caller must have the `MINTER_ROLE`."
      },
      "mintBatch(address,uint256[],uint256[],bytes)": {
        "details": "xref:ROOT:erc1155.adoc#batch-operations[Batched] variant of {mint}."
      },
      "onERC1155BatchReceived(address,address,uint256[],uint256[],bytes)": {
        "details": "Handles the receipt of a multiple ERC1155 token types. This function is called at the end of a `safeBatchTransferFrom` after the balances have been updated. NOTE: To accept the transfer(s), this must return `bytes4(keccak256(\"onERC1155BatchReceived(address,address,uint256[],uint256[],bytes)\"))` (i.e. 0xbc197c81, or its own function selector).",
        "params": {
          "data": "Additional data with no specified format",
          "from": "The address which previously owned the token",
          "ids": "An array containing ids of each token being transferred (order and length must match values array)",
          "operator": "The address which initiated the batch transfer (i.e. msg.sender)",
          "values": "An array containing amounts of each token being transferred (order and length must match ids array)"
        },
        "returns": {
          "_0": "`bytes4(keccak256(\"onERC1155BatchReceived(address,address,uint256[],uint256[],bytes)\"))` if transfer is allowed"
        }
      },
      "onERC1155Received(address,address,uint256,uint256,bytes)": {
        "details": "Handles the receipt of a single ERC1155 token type. This function is called at the end of a `safeTransferFrom` after the balance has been updated. NOTE: To accept the transfer, this must return `bytes4(keccak256(\"onERC1155Received(address,address,uint256,uint256,bytes)\"))` (i.e. 0xf23a6e61, or its own function selector).",
        "params": {
          "data": "Additional data with no specified format",
          "from": "The address which previously owned the token",
          "id": "The ID of the token being transferred",
          "operator": "The address which initiated the transfer (i.e. msg.sender)",
          "value": "The amount of tokens being transferred"
        },
        "returns": {
          "_0": "`bytes4(keccak256(\"onERC1155Received(address,address,uint256,uint256,bytes)\"))` if transfer is allowed"
        }
      },
      "pause()": {
        "details": "Pauses all token transfers. See {ERC1155Pausable} and {Pausable-_pause}. Requirements: - the caller must have the `PAUSER_ROLE`."
      },
      "paused()": {
        "details": "Returns true if the contract is paused, and false otherwise."
      },
      "renounceRole(bytes32,address)": {
        "details": "Revokes `role` from the calling account. Roles are often managed via {grantRole} and {revokeRole}: this function's purpose is to provide a mechanism for accounts to lose their privileges if they are compromised (such as when a trusted device is misplaced). If the calling account had been revoked `role`, emits a {RoleRevoked} event. Requirements: - the caller must be `account`."
      },
      "revokeRole(bytes32,address)": {
        "details": "Revokes `role` from `account`. If `account` had been granted `role`, emits a {RoleRevoked} event. Requirements: - the caller must have ``role``'s admin role."
      },
      "safeBatchTransferFrom(address,address,uint256[],uint256[],bytes)": {
        "details": "See {IERC1155-safeBatchTransferFrom}."
      },
      "safeTransferFrom(address,address,uint256,uint256,bytes)": {
        "details": "See {IERC1155-safeTransferFrom}."
      },
      "setApprovalForAll(address,bool)": {
        "details": "See {IERC1155-setApprovalForAll}."
      },
      "supportsInterface(bytes4)": {
        "details": "See {IERC165-supportsInterface}."
      },
      "unpause()": {
        "details": "Unpauses all token transfers. See {ERC1155Pausable} and {Pausable-_unpause}. Requirements: - the caller must have the `PAUSER_ROLE`."
      },
      "uri(uint256)": {
        "details": "See {IERC1155MetadataURI-uri}. This implementation returns the same URI for *all* token types. It relies on the token type ID substitution mechanism https://eips.ethereum.org/EIPS/eip-1155#metadata[defined in the EIP]. Clients calling this function must replace the `\\{id\\}` substring with the actual token type ID."
      }
    },
    "version": 1
  },
  "userdoc": {
    "kind": "user",
    "methods": {},
    "version": 1
  }
}