{
  "contractName": "NFTAuction",
  "abi": [
    {
      "inputs": [],
      "stateMutability": "nonpayable",
      "type": "constructor"
    },
    {
      "anonymous": false,
      "inputs": [
        {
          "indexed": true,
          "internalType": "address",
          "name": "bidAddress",
          "type": "address"
        },
        {
          "indexed": false,
          "internalType": "uint256",
          "name": "price",
          "type": "uint256"
        },
        {
          "indexed": false,
          "internalType": "address",
          "name": "bider",
          "type": "address"
        },
        {
          "indexed": false,
          "internalType": "uint256",
          "name": "count",
          "type": "uint256"
        }
      ],
      "name": "Bid",
      "type": "event"
    },
    {
      "anonymous": false,
      "inputs": [
        {
          "indexed": true,
          "internalType": "address",
          "name": "bidAddress",
          "type": "address"
        },
        {
          "indexed": false,
          "internalType": "enum NFTAuction.Status",
          "name": "status",
          "type": "uint8"
        }
      ],
      "name": "Over",
      "type": "event"
    },
    {
      "anonymous": false,
      "inputs": [
        {
          "indexed": true,
          "internalType": "address",
          "name": "contractAddresss",
          "type": "address"
        },
        {
          "indexed": false,
          "internalType": "address",
          "name": "from",
          "type": "address"
        },
        {
          "indexed": false,
          "internalType": "address",
          "name": "to",
          "type": "address"
        },
        {
          "indexed": false,
          "internalType": "uint256",
          "name": "tokenid",
          "type": "uint256"
        },
        {
          "indexed": false,
          "internalType": "uint256",
          "name": "amount",
          "type": "uint256"
        }
      ],
      "name": "PublishSuccess",
      "type": "event"
    },
    {
      "anonymous": false,
      "inputs": [
        {
          "indexed": true,
          "internalType": "address",
          "name": "bidAddress",
          "type": "address"
        },
        {
          "indexed": true,
          "internalType": "address",
          "name": "contractAddresss",
          "type": "address"
        },
        {
          "indexed": false,
          "internalType": "uint256",
          "name": "tokenId",
          "type": "uint256"
        },
        {
          "indexed": false,
          "internalType": "uint256",
          "name": "minPrice",
          "type": "uint256"
        }
      ],
      "name": "Settle",
      "type": "event"
    },
    {
      "anonymous": false,
      "inputs": [
        {
          "indexed": true,
          "internalType": "address",
          "name": "to",
          "type": "address"
        },
        {
          "indexed": false,
          "internalType": "uint256",
          "name": "amount",
          "type": "uint256"
        }
      ],
      "name": "Widthdraw",
      "type": "event"
    },
    {
      "inputs": [
        {
          "internalType": "address",
          "name": "",
          "type": "address"
        }
      ],
      "name": "autions",
      "outputs": [
        {
          "internalType": "uint128",
          "name": "auctionBidPeriod",
          "type": "uint128"
        },
        {
          "internalType": "uint128",
          "name": "auctionEnd",
          "type": "uint128"
        },
        {
          "internalType": "uint256",
          "name": "despoitAmount",
          "type": "uint256"
        },
        {
          "internalType": "uint256",
          "name": "startPrice",
          "type": "uint256"
        },
        {
          "internalType": "uint256",
          "name": "minPrice",
          "type": "uint256"
        },
        {
          "internalType": "enum NFTAuction.Status",
          "name": "status",
          "type": "uint8"
        },
        {
          "internalType": "address",
          "name": "minPriceAddress",
          "type": "address"
        },
        {
          "internalType": "uint256",
          "name": "tokenId",
          "type": "uint256"
        },
        {
          "internalType": "address",
          "name": "nftSeller",
          "type": "address"
        },
        {
          "internalType": "address",
          "name": "nftContractAddress",
          "type": "address"
        },
        {
          "internalType": "uint256",
          "name": "amount",
          "type": "uint256"
        },
        {
          "internalType": "uint256",
          "name": "bidAmount",
          "type": "uint256"
        }
      ],
      "stateMutability": "view",
      "type": "function"
    },
    {
      "inputs": [
        {
          "internalType": "uint256",
          "name": "",
          "type": "uint256"
        }
      ],
      "name": "currentActions",
      "outputs": [
        {
          "internalType": "address",
          "name": "",
          "type": "address"
        }
      ],
      "stateMutability": "view",
      "type": "function"
    },
    {
      "inputs": [],
      "name": "defaultAssestLockAmount",
      "outputs": [
        {
          "internalType": "uint256",
          "name": "",
          "type": "uint256"
        }
      ],
      "stateMutability": "view",
      "type": "function"
    },
    {
      "inputs": [],
      "name": "defaultAuctionBidPeriod",
      "outputs": [
        {
          "internalType": "uint32",
          "name": "",
          "type": "uint32"
        }
      ],
      "stateMutability": "view",
      "type": "function"
    },
    {
      "inputs": [
        {
          "internalType": "address",
          "name": "",
          "type": "address"
        }
      ],
      "name": "refunds",
      "outputs": [
        {
          "internalType": "uint256",
          "name": "",
          "type": "uint256"
        }
      ],
      "stateMutability": "view",
      "type": "function"
    },
    {
      "inputs": [
        {
          "internalType": "address",
          "name": "",
          "type": "address"
        }
      ],
      "name": "userAution",
      "outputs": [
        {
          "internalType": "address",
          "name": "",
          "type": "address"
        }
      ],
      "stateMutability": "view",
      "type": "function"
    },
    {
      "inputs": [],
      "name": "getActions",
      "outputs": [
        {
          "internalType": "address[]",
          "name": "",
          "type": "address[]"
        }
      ],
      "stateMutability": "view",
      "type": "function"
    },
    {
      "inputs": [
        {
          "internalType": "address",
          "name": "bidId",
          "type": "address"
        }
      ],
      "name": "setBiders",
      "outputs": [],
      "stateMutability": "nonpayable",
      "type": "function"
    },
    {
      "inputs": [],
      "name": "getBiders",
      "outputs": [
        {
          "internalType": "address[]",
          "name": "",
          "type": "address[]"
        }
      ],
      "stateMutability": "view",
      "type": "function"
    },
    {
      "inputs": [
        {
          "internalType": "address",
          "name": "_nftContractAddress",
          "type": "address"
        },
        {
          "internalType": "uint256",
          "name": "_tokenId",
          "type": "uint256"
        },
        {
          "internalType": "uint128",
          "name": "_startPrice",
          "type": "uint128"
        },
        {
          "internalType": "uint256",
          "name": "_amount",
          "type": "uint256"
        },
        {
          "internalType": "string",
          "name": "_uri",
          "type": "string"
        }
      ],
      "name": "publishAution",
      "outputs": [],
      "stateMutability": "payable",
      "type": "function"
    },
    {
      "inputs": [
        {
          "internalType": "address",
          "name": "el",
          "type": "address"
        }
      ],
      "name": "remove",
      "outputs": [],
      "stateMutability": "nonpayable",
      "type": "function"
    },
    {
      "inputs": [
        {
          "internalType": "address",
          "name": "bidId",
          "type": "address"
        }
      ],
      "name": "getMinPrice",
      "outputs": [
        {
          "internalType": "uint256",
          "name": "",
          "type": "uint256"
        },
        {
          "internalType": "address",
          "name": "",
          "type": "address"
        },
        {
          "internalType": "uint256",
          "name": "",
          "type": "uint256"
        }
      ],
      "stateMutability": "view",
      "type": "function"
    },
    {
      "inputs": [
        {
          "internalType": "address",
          "name": "bidId",
          "type": "address"
        }
      ],
      "name": "bid",
      "outputs": [],
      "stateMutability": "payable",
      "type": "function"
    },
    {
      "inputs": [
        {
          "internalType": "address",
          "name": "bidId",
          "type": "address"
        }
      ],
      "name": "overAution",
      "outputs": [],
      "stateMutability": "nonpayable",
      "type": "function"
    },
    {
      "inputs": [
        {
          "internalType": "address",
          "name": "bidId",
          "type": "address"
        }
      ],
      "name": "autionConfirm",
      "outputs": [],
      "stateMutability": "nonpayable",
      "type": "function"
    },
    {
      "inputs": [
        {
          "internalType": "address",
          "name": "bidId",
          "type": "address"
        }
      ],
      "name": "getAutionApplyNumber",
      "outputs": [
        {
          "internalType": "uint256",
          "name": "",
          "type": "uint256"
        }
      ],
      "stateMutability": "view",
      "type": "function"
    },
    {
      "inputs": [],
      "name": "widthdraw",
      "outputs": [],
      "stateMutability": "nonpayable",
      "type": "function"
    },
    {
      "inputs": [
        {
          "internalType": "address",
          "name": "operator",
          "type": "address"
        },
        {
          "internalType": "address",
          "name": "from",
          "type": "address"
        },
        {
          "internalType": "uint256",
          "name": "id",
          "type": "uint256"
        },
        {
          "internalType": "uint256",
          "name": "value",
          "type": "uint256"
        },
        {
          "internalType": "bytes",
          "name": "data",
          "type": "bytes"
        }
      ],
      "name": "onERC1155Received",
      "outputs": [
        {
          "internalType": "bytes4",
          "name": "",
          "type": "bytes4"
        }
      ],
      "stateMutability": "pure",
      "type": "function"
    },
    {
      "inputs": [
        {
          "internalType": "address",
          "name": "operator",
          "type": "address"
        },
        {
          "internalType": "address",
          "name": "from",
          "type": "address"
        },
        {
          "internalType": "uint256[]",
          "name": "ids",
          "type": "uint256[]"
        },
        {
          "internalType": "uint256[]",
          "name": "values",
          "type": "uint256[]"
        },
        {
          "internalType": "bytes",
          "name": "data",
          "type": "bytes"
        }
      ],
      "name": "onERC1155BatchReceived",
      "outputs": [
        {
          "internalType": "bytes4",
          "name": "",
          "type": "bytes4"
        }
      ],
      "stateMutability": "pure",
      "type": "function"
    },
    {
      "inputs": [
        {
          "internalType": "address",
          "name": "operator",
          "type": "address"
        },
        {
          "internalType": "address",
          "name": "from",
          "type": "address"
        },
        {
          "internalType": "uint256",
          "name": "tokenId",
          "type": "uint256"
        },
        {
          "internalType": "bytes",
          "name": "data",
          "type": "bytes"
        }
      ],
      "name": "onERC721Received",
      "outputs": [
        {
          "internalType": "bytes4",
          "name": "",
          "type": "bytes4"
        }
      ],
      "stateMutability": "pure",
      "type": "function"
    },
    {
      "inputs": [
        {
          "internalType": "bytes4",
          "name": "interfaceId",
          "type": "bytes4"
        }
      ],
      "name": "supportsInterface",
      "outputs": [
        {
          "internalType": "bool",
          "name": "",
          "type": "bool"
        }
      ],
      "stateMutability": "view",
      "type": "function"
    }
  ],
  "bytecode": "0x608060405234801561001057600080fd5b506006805463ffffffff191662015180179055670de0b6b3a76400006007556121848061003e6000396000f3fe60806040526004361061012a5760003560e01c806381a612d6116100ab578063bc197c811161006f578063bc197c8114610474578063bc3da535146104a3578063c18c49df146104d0578063ea965904146104e6578063f23a6e61146104f9578063fac6d5fd1461052657600080fd5b806381a612d6146103405780639cf5453d146103b75780639d1278f6146103ca578063a9a2d6f714610411578063b35eead81461042657600080fd5b8063492977fb116100f2578063492977fb146102a95780634f626286146102c9578063504d080b146102e957806352b50a2a1461030b5780636f45a27a1461032057600080fd5b806301ffc9a71461012f578063150b7a0214610164578063186779d5146101a9578063260874b8146101db57806329092d0e14610287575b600080fd5b34801561013b57600080fd5b5061014f61014a366004611a9a565b610546565b60405190151581526020015b60405180910390f35b34801561017057600080fd5b5061019061017f366004611b30565b630a85bd0160e11b95945050505050565b6040516001600160e01b0319909116815260200161015b565b3480156101b557600080fd5b506006546101c69063ffffffff1681565b60405163ffffffff909116815260200161015b565b3480156101e757600080fd5b5061026f6101f6366004611b9f565b600460208190526000918252604090912080546001820154600283015460038401549484015460058501546006860154600787015460088801546009909801546001600160801b038089169a600160801b90990416989697959660ff8616956001600160a01b036101009091048116959481169316918c565b60405161015b9c9b9a99989796959493929190611bf2565b34801561029357600080fd5b506102a76102a2366004611b9f565b61057d565b005b3480156102b557600080fd5b506102a76102c4366004611b9f565b6106f5565b3480156102d557600080fd5b506102a76102e4366004611b9f565b61079b565b3480156102f557600080fd5b506102fe6109eb565b60405161015b9190611c73565b34801561031757600080fd5b506102a7610a4d565b34801561032c57600080fd5b506102a761033b366004611b9f565b610af3565b34801561034c57600080fd5b5061039461035b366004611b9f565b6001600160a01b039081166000908152600460208190526040909120600381015491810154600190910154919361010090910490921691565b604080519384526001600160a01b0390921660208401529082015260600161015b565b6102a76103c5366004611b9f565b610cdf565b3480156103d657600080fd5b506104036103e5366004611b9f565b6001600160a01b031660009081526004602052604090206009015490565b60405190815260200161015b565b34801561041d57600080fd5b506102fe61116c565b34801561043257600080fd5b5061045c610441366004611b9f565b6005602052600090815260409020546001600160a01b031681565b6040516001600160a01b03909116815260200161015b565b34801561048057600080fd5b5061019061048f366004611d05565b63bc197c8160e01b98975050505050505050565b3480156104af57600080fd5b506104036104be366004611b9f565b60026020526000908152604090205481565b3480156104dc57600080fd5b5061040360075481565b6102a76104f4366004611dd6565b6111cc565b34801561050557600080fd5b50610190610514366004611eca565b63f23a6e6160e01b9695505050505050565b34801561053257600080fd5b5061045c610541366004611f42565b6114df565b60006001600160e01b03198216630271189760e51b148061057757506301ffc9a760e01b6001600160e01b03198316145b92915050565b60005b6003548110156105d957816001600160a01b0316600382815481106105a7576105a7611f5b565b6000918252602090912001546001600160a01b031614156105c7576105d9565b806105d181611f87565b915050610580565b801580156106185750816001600160a01b0316600360008154811061060057610600611f5b565b6000918252602090912001546001600160a01b031614155b15610621575050565b600354811061062e575050565b8061066a57600380548061064457610644611fa2565b600082815260209020810160001990810180546001600160a01b03191690550190555050565b6003805461067a90600190611fb8565b8154811061068a5761068a611f5b565b600091825260209091200154600380546001600160a01b0390921691839081106106b6576106b6611f5b565b9060005260206000200160006101000a8154816001600160a01b0302191690836001600160a01b03160217905550600380548061064457610644611fa2565b610701600160006119e0565b6001600160a01b038116600090815260046020526040902060015b81600901548111610796576000818152600a8301602052604081205460018054808201825592527fb10e2d527612073b26eecdfd717e6a320cf44b4afac2b0732d9fcbe2b7fa0cf690910180546001600160a01b0319166001600160a01b039092169190911790558061078e81611f87565b91505061071c565b505050565b6001600160a01b038181166000908152600460205260409020600681015490911633146107e35760405162461bcd60e51b81526004016107da90611fcf565b60405180910390fd5b6002600482015460ff1660028111156107fe576107fe611bba565b1461081b5760405162461bcd60e51b81526004016107da90611feb565b60015b816009015481116109195760038201546000828152600a840160209081526040808320546001600160a01b03168352600b860190915290205411156108d05760038201546000828152600a840160209081526040808320546001600160a01b031683526002825280832054600b87019092529091205461089e9190612007565b6108a89190611fb8565b6000828152600a840160209081526040808320546001600160a01b0316835260029091529020555b60078201546000828152600a840160205260409020546005840154610907926001600160a01b039081169230929116906001611509565b8061091181611f87565b91505061081e565b50806001015481600901548260030154610933919061201f565b60068301546001600160a01b031660009081526002602052604090205461095a9190612007565b6109649190612007565b60068201546001600160a01b031660009081526002602052604090205561098a8261057d565b6007810154600582015460038301546040516001600160a01b03938416938616927fddd2b8bfe59e2aa6d76b0600fa7f6e161b9ece46b47a20197e2755899e7e8837926109df92918252602082015260400190565b60405180910390a35050565b60606003805480602002602001604051908101604052809291908181526020018280548015610a4357602002820191906000526020600020905b81546001600160a01b03168152600190910190602001808311610a25575b5050505050905090565b33600090815260026020526040902054610a795760405162461bcd60e51b81526004016107da90611fcf565b33600081815260026020526040808220805490839055905190929183156108fc02918491818181858888f19350505050158015610aba573d6000803e3d6000fd5b5060405181815233907f0594f701315aa9903d34cb81c1206524a1305ee899cdb40520e4ea3e45d170fb9060200160405180910390a250565b610afc816115f7565b610b185760405162461bcd60e51b81526004016107da90611fcf565b6001600160a01b0381166000908152600460205260409020600881015460098201541015610c815760048101805460ff191660019081179091555b81600901548111610c445781600901548260010154610b72919061203e565b6000828152600a840160209081526040808320546001600160a01b03168352600b8601825280832054600290925290912054610bae9190612007565b610bb89190612007565b6000828152600a840160209081526040808320546001600160a01b03168352600290915281208054909190610bee908490612007565b90915550506000818152600a83016020818152604080842080546001600160a01b03168552600b87018352908420849055928490525280546001600160a01b031916905580610c3c81611f87565b915050610b53565b506007810154600682015460058301546008840154610c73936001600160a01b03908116933093911691611509565b610c7c8261057d565b610c91565b60048101805460ff191660021790555b60048101546040516001600160a01b038416917fea6f8f8d312e05e6e661973faebac4f539ccdd7146ef8178056e1cccc8ecab9c91610cd39160ff1690612060565b60405180910390a25050565b610ce881611692565b610d045760405162461bcd60e51b81526004016107da90611fcf565b6001600160a01b03811660009081526004602052604090206002810154341015610d405760405162461bcd60e51b81526004016107da90611feb565b6000600482015460ff166002811115610d5b57610d5b611bba565b14610d8d5760405162461bcd60e51b81526020600482015260026024820152616e3360f01b60448201526064016107da565b806008015481600901541015610eb05760038101541580610db15750348160030154115b15610dd657346003820155600481018054610100600160a81b03191633610100021790555b6001816009016000828254610deb9190612007565b9091555050336000908152600b82016020526040902054341015610e215760405162461bcd60e51b81526004016107da9061206e565b336000908152600b8201602052604090205415610e7357336000818152600b8301602052604080822054905181156108fc0292818181858888f19350505050158015610e71573d6000803e3d6000fd5b505b336000818152600b83016020908152604080832034905560098501548352600a8501909152902080546001600160a01b031916909117905561111e565b3481600301541180610ed25750600481015461010090046001600160a01b0316155b15610f125760405162461bcd60e51b815260206004820152601060248201526f6d696e207072696365206c657373202160801b60448201526064016107da565b600060015b82600901548111610f665760048301546000828152600a850160205260409020546001600160a01b03908116610100909204161415610f54578091505b80610f5e81611f87565b915050610f17565b506000818152600a83016020908152604080832080546001600160a01b03191633908117909155600486015461010090046001600160a01b03168452600b8601909252808320839055908252902054341015610fd45760405162461bcd60e51b81526004016107da9061206e565b336000908152600b830160205260409020541561102657336000818152600b8401602052604080822054905181156108fc0292818181858888f19350505050158015611024573d6000803e3d6000fd5b505b336000908152600b8301602081815260408084203490556001808552600a87018352818520546001600160a01b031685529290915290912054905b836009015481116110de576000818152600a850160209081526040808320546001600160a01b03168352600b87019091529020548211156110cc576000818152600a850160209081526040808320546001600160a01b03168352600b87019091529020549092509050815b806110d681611f87565b915050611061565b5060038301556000908152600a820160205260409020546004820180546001600160a01b0390921661010002610100600160a81b03199092169190911790555b600981015460408051348152336020820152908101919091526001600160a01b038316907f7f863cab1b412077be133ef69af7df0e6aca4c67ff7d89db843d601f124a025d90606001610cd3565b60606001805480602002602001604051908101604052809291908181526020018280548015610a43576020028201919060005260206000209081546001600160a01b03168152600190910190602001808311610a25575050505050905090565b8484600460006111dc84846116e4565b6001600160a01b03168152602081019190915260400160002060020154156112165760405162461bcd60e51b81526004016107da90611feb565b856112335760405162461bcd60e51b81526004016107da90611fcf565b6001600160a01b03871661124657600080fd5b6000856001600160801b03161161126f5760405162461bcd60e51b81526004016107da9061206e565b600084116112a45760405162461bcd60e51b81526020600482015260026024820152616e3560f01b60448201526064016107da565b6007543410156112db5760405162461bcd60e51b8152602060048201526002602482015261371b60f11b60448201526064016107da565b60006112e788886116e4565b33600090815260056020908152604080832080546001600160a01b0386166001600160a01b03199091168117909155600680549185526004909352922080546fffffffffffffffffffffffffffffffff191663ffffffff938416179055549192506113549142911661208a565b6001600160a01b03821660009081526004602090815260408083208054600160801b67ffffffffffffffff96909616959095026001600160801b03958616178155938a16600285015560059093018a905581815291902085516113b992870190611a01565b506001600160a01b0381811660009081526004602081905260408220600681018054336001600160a01b031991821617909155600782018054909116948d16949094179093556008830188905591909101805460ff191660018302179055506001600160a01b0381166000818152600460205260408120346001918201556003805491820181559091527fc2575a0e9e593c00f959f8c92f12db2869c3395a3b0502d05e2516446f71f85b0180546001600160a01b03191690911790556114838833308a89611509565b60408051338152306020820152908101889052606081018690526001600160a01b038916907f4fe157a18d68728419d8ebd85f804bd08430d34d448ea61dcb719dfb69f1b87c9060800160405180910390a25050505050505050565b600381815481106114ef57600080fd5b6000918252602090912001546001600160a01b0316905081565b846115138161172c565b1561159257604080516001600160a01b03878116602483015286166044820152606481018590526084810184905260a060a4820152600060c4808301919091528251808303909101815260e49091019091526020810180516001600160e01b0316637921219560e11b179052869061158c9082906117ad565b506115ef565b6040516001600160a01b038087166024830152851660448201526064810184905286906115ed90829060840160408051601f198184030181529190526020810180516001600160e01b0316636edaf04d60e01b1790526118ca565b505b505050505050565b6001600160a01b038116600090815260046020819052604082200154819060ff16600281111561162957611629611bba565b14801561165d57506001600160a01b038216600090815260046020526040902054600160801b90046001600160801b031642115b80156105775750506001600160a01b0316600090815260046020526040902054600160801b90046001600160801b0316151590565b6001600160a01b0381166000908152600460205260408120600201541515806105775750506001600160a01b0316600090815260046020526040902054600160801b90046001600160801b0316421090565b6040516bffffffffffffffffffffffff19606084901b1660208201526034810182905260009060540160408051601f1981840301815291905280516020909101209392505050565b6040516301ffc9a760e01b8152636cdb3d1360e11b60048201526000906001600160a01b038316906301ffc9a79060240160206040518083038186803b15801561177557600080fd5b505afa158015611789573d6000803e3d6000fd5b505050506040513d601f19601f8201168201806040525081019061057791906120b6565b600080836001600160a01b0316836040516117c891906120d8565b6000604051808303816000865af19150503d8060008114611805576040519150601f19603f3d011682016040523d82523d6000602084013e61180a565b606091505b5091509150816118535760405162461bcd60e51b8152602060048201526014602482015273115490cc4c4d4d4e8818d85b1b0819985a5b195960621b60448201526064016107da565b8051156118c4578080602001905181019061186e91906120b6565b6118c45760405162461bcd60e51b815260206004820152602160248201527f4552433135353a206f7065726174696f6e20646964206e6f74207375636365656044820152601960fa1b60648201526084016107da565b50505050565b600080836001600160a01b0316836040516118e591906120d8565b6000604051808303816000865af19150503d8060008114611922576040519150601f19603f3d011682016040523d82523d6000602084013e611927565b606091505b50915091508161196f5760405162461bcd60e51b8152602060048201526013602482015272115490cdcc8c4e8818d85b1b0819985a5b1959606a1b60448201526064016107da565b8051156118c4578080602001905181019061198a91906120b6565b6118c45760405162461bcd60e51b815260206004820152602160248201527f4552433732313a206f7065726174696f6e20646964206e6f74207375636365656044820152601960fa1b60648201526084016107da565b50805460008255906000526020600020908101906119fe9190611a85565b50565b828054611a0d90612113565b90600052602060002090601f016020900481019282611a2f5760008555611a75565b82601f10611a4857805160ff1916838001178555611a75565b82800160010185558215611a75579182015b82811115611a75578251825591602001919060010190611a5a565b50611a81929150611a85565b5090565b5b80821115611a815760008155600101611a86565b600060208284031215611aac57600080fd5b81356001600160e01b031981168114611ac457600080fd5b9392505050565b80356001600160a01b0381168114611ae257600080fd5b919050565b60008083601f840112611af957600080fd5b50813567ffffffffffffffff811115611b1157600080fd5b602083019150836020828501011115611b2957600080fd5b9250929050565b600080600080600060808688031215611b4857600080fd5b611b5186611acb565b9450611b5f60208701611acb565b935060408601359250606086013567ffffffffffffffff811115611b8257600080fd5b611b8e88828901611ae7565b969995985093965092949392505050565b600060208284031215611bb157600080fd5b611ac482611acb565b634e487b7160e01b600052602160045260246000fd5b60038110611bee57634e487b7160e01b600052602160045260246000fd5b9052565b6001600160801b038d811682528c166020820152604081018b9052606081018a9052608081018990526101808101611c2d60a083018a611bd0565b6001600160a01b0397881660c083015260e08201969096529386166101008501529190941661012083015261014082019390935261016001919091529695505050505050565b6020808252825182820181905260009190848201906040850190845b81811015611cb45783516001600160a01b031683529284019291840191600101611c8f565b50909695505050505050565b60008083601f840112611cd257600080fd5b50813567ffffffffffffffff811115611cea57600080fd5b6020830191508360208260051b8501011115611b2957600080fd5b60008060008060008060008060a0898b031215611d2157600080fd5b611d2a89611acb565b9750611d3860208a01611acb565b9650604089013567ffffffffffffffff80821115611d5557600080fd5b611d618c838d01611cc0565b909850965060608b0135915080821115611d7a57600080fd5b611d868c838d01611cc0565b909650945060808b0135915080821115611d9f57600080fd5b50611dac8b828c01611ae7565b999c989b5096995094979396929594505050565b634e487b7160e01b600052604160045260246000fd5b600080600080600060a08688031215611dee57600080fd5b611df786611acb565b94506020860135935060408601356001600160801b0381168114611e1a57600080fd5b925060608601359150608086013567ffffffffffffffff80821115611e3e57600080fd5b818801915088601f830112611e5257600080fd5b813581811115611e6457611e64611dc0565b604051601f8201601f19908116603f01168101908382118183101715611e8c57611e8c611dc0565b816040528281528b6020848701011115611ea557600080fd5b8260208601602083013760006020848301015280955050505050509295509295909350565b60008060008060008060a08789031215611ee357600080fd5b611eec87611acb565b9550611efa60208801611acb565b94506040870135935060608701359250608087013567ffffffffffffffff811115611f2457600080fd5b611f3089828a01611ae7565b979a9699509497509295939492505050565b600060208284031215611f5457600080fd5b5035919050565b634e487b7160e01b600052603260045260246000fd5b634e487b7160e01b600052601160045260246000fd5b6000600019821415611f9b57611f9b611f71565b5060010190565b634e487b7160e01b600052603160045260246000fd5b600082821015611fca57611fca611f71565b500390565b6020808252600290820152616e3160f01b604082015260600190565b602080825260029082015261371960f11b604082015260600190565b6000821982111561201a5761201a611f71565b500190565b600081600019048311821515161561203957612039611f71565b500290565b60008261205b57634e487b7160e01b600052601260045260246000fd5b500490565b602081016105778284611bd0565b6020808252600290820152611b8d60f21b604082015260600190565b600067ffffffffffffffff8083168185168083038211156120ad576120ad611f71565b01949350505050565b6000602082840312156120c857600080fd5b81518015158114611ac457600080fd5b6000825160005b818110156120f957602081860181015185830152016120df565b81811115612108576000828501525b509190910192915050565b600181811c9082168061212757607f821691505b6020821081141561214857634e487b7160e01b600052602260045260246000fd5b5091905056fea26469706673582212202f11f7e8519afeaa440da5d14d3081d0556bb2e4def17207117635b36c3094d764736f6c63430008090033",
  "immutableReferences": {},
  "source": "// SPDX-License-Identifier: MIT\npragma solidity >=0.4.21 <8.10.0;\n\nimport \"@openzeppelin/contracts/token/ERC721/IERC721.sol\";\nimport \"@openzeppelin/contracts/token/ERC1155/IERC1155.sol\";\nimport \"@openzeppelin/contracts/token/ERC721/IERC721Receiver.sol\";\nimport \"@openzeppelin/contracts/token/ERC20/IERC20.sol\";\nimport \"@openzeppelin/contracts/token/ERC1155/IERC1155Receiver.sol\";\nimport \"@openzeppelin/contracts/utils/introspection/ERC165.sol\";\n\ncontract NFTAuction is IERC1155Receiver, IERC721Receiver, ERC165 {\n    bytes4 private constant CONTRACT1155INTERFACE = 0xd9b67a26;\n    enum Status {\n        Ongoing,\n        Fail,\n        Success\n    }\n\n    //\n    struct Auction {\n        //map token ID to\n        uint128 auctionBidPeriod; // \n        uint128 auctionEnd; //\n        uint256 despoitAmount;\n        uint256 startPrice;\n        uint256 minPrice; //\n        Status status;\n        address minPriceAddress;\n        uint256 tokenId; //NFT tokenId\n        address nftSeller; //\n        address nftContractAddress; // NFT\n        uint256 amount; //token 1721 1 1155\n        uint256 bidAmount;\n        mapping(uint256 => address) list; //map\n        mapping(address => uint256) biders; //\n    }\n    mapping(address => string) tokenUris;\n\n    address[] currentBids;\n    mapping(address => uint256) public refunds; //\n    address[] public currentActions;\n\n    mapping(address => Auction) public autions; //id \n    mapping(address => address) public userAution; //id\n\n    uint32 public defaultAuctionBidPeriod; //\n    uint256 public defaultAssestLockAmount; //\n\n    event PublishSuccess(\n        address indexed contractAddresss,\n        address from,\n        address to,\n        uint256 tokenid,\n        uint256 amount\n    );\n\n    event Bid(\n        address indexed bidAddress,\n        uint256 price,\n        address bider,\n        uint256 count\n    );\n\n    event Over(address indexed bidAddress, Status status);\n\n    event Settle(\n        address indexed bidAddress,\n        address indexed contractAddresss,\n        uint256 tokenId,\n        uint256 minPrice\n    );\n    event Widthdraw(address indexed to, uint256 amount);\n\n    constructor() {\n        defaultAuctionBidPeriod = 86400; //1 day\n        defaultAssestLockAmount = 1 ether;\n    }\n\n    modifier autionNotStart(address _nftContractAddress, uint256 _tokenId) {\n        require(\n            autions[autionAddress(_nftContractAddress, _tokenId)].startPrice ==\n                0,\n            \"n2\"\n        );\n        _;\n    }\n\n    function autionOngoing(address bidAddress) internal view returns (bool) {\n        return\n            autions[bidAddress].startPrice != 0 ||\n            block.timestamp < autions[bidAddress].auctionEnd;\n    }\n\n    function getActions() public view returns (address[] memory) {\n        return currentActions;\n    }\n\n    function autionOverTime(address bidAddress) internal view returns (bool) {\n        return\n            autions[bidAddress].status == Status.Ongoing &&\n            block.timestamp > autions[bidAddress].auctionEnd &&\n            autions[bidAddress].auctionEnd != 0;\n    }\n\n    function setBiders(address bidId) public {\n        delete currentBids;\n        Auction storage aution = autions[bidId];\n\n        for (uint256 i = 1; i <= aution.bidAmount; i++) {\n            currentBids.push(aution.list[i]);\n        }\n\n        //      assembly{\n        //    let memOffset:= mload(0x40)\n        //     mstore(memOffset,0x20)\n\n        //      mstore (add(memOffset,32),len)\n        //      mstore(add(memOffset,32),)\n        //      }\n    }\n\n    function getBiders() public view returns (address[] memory) {\n        return currentBids;\n    }\n\n    function autionAddress(address _nftContractAddress, uint256 _tokenId)\n        internal\n        pure\n        returns (address)\n    {\n        return\n            address(\n                uint160(\n                    uint256(\n                        keccak256(\n                            abi.encodePacked(_nftContractAddress, _tokenId)\n                        )\n                    )\n                )\n            );\n    }\n\n    function _safeCall721(IERC721 token, bytes memory data) private {\n        (bool success, bytes memory returndata) = address(token).call(data);\n        require(success, \"ERC721: call failed\");\n\n        if (returndata.length > 0) {\n            require(\n                abi.decode(returndata, (bool)),\n                \"ERC721: operation did not succeed\"\n            );\n        }\n    }\n\n    function _safeCall1155(IERC1155 token, bytes memory data) private {\n        (bool success, bytes memory returndata) = address(token).call(data);\n        require(success, \"ERC1155: call failed\");\n\n        if (returndata.length > 0) {\n            require(\n                abi.decode(returndata, (bool)),\n                \"ERC155: operation did not succeed\"\n            );\n        }\n    }\n\n    function is1155Interface(IERC165 erc165) private view returns (bool) {\n        return erc165.supportsInterface(CONTRACT1155INTERFACE);\n    }\n\n    // \n    function publishAution(\n        address _nftContractAddress,\n        uint256 _tokenId,\n        uint128 _startPrice,\n        uint256 _amount,\n        string memory _uri\n    ) external payable autionNotStart(_nftContractAddress, _tokenId) {\n        require(_tokenId != 0, \"n1\");\n        require(_nftContractAddress != address(0));\n        require(_startPrice > 0, \"n4\");\n        require(_amount > 0, \"n5\");\n        require(msg.value >= defaultAssestLockAmount, \"n6\");\n        address _aution = autionAddress(_nftContractAddress, _tokenId);\n        userAution[msg.sender] = _aution;\n        autions[_aution].auctionBidPeriod = defaultAuctionBidPeriod;\n        autions[_aution].auctionEnd =\n            defaultAuctionBidPeriod +\n            uint64(block.timestamp);\n        autions[_aution].startPrice = _startPrice;\n        autions[_aution].tokenId = _tokenId;\n        tokenUris[_aution] = _uri;\n        autions[_aution].nftSeller = msg.sender;\n        autions[_aution].nftContractAddress = _nftContractAddress;\n        autions[_aution].amount = _amount;\n        autions[_aution].status = Status.Ongoing;\n        autions[_aution].despoitAmount = msg.value;\n        currentActions.push(_aution);\n        safeTransferFromCall(\n            _nftContractAddress,\n            msg.sender,\n            address(this),\n            _tokenId,\n            _amount\n        );\n        emit PublishSuccess(\n            _nftContractAddress,\n            msg.sender,\n            address(this),\n            _tokenId,\n            _amount\n        );\n    }\n\n    function safeTransferFromCall(\n        address _nftContractAddress,\n        address from,\n        address to,\n        uint256 _tokenId,\n        uint256 amount\n    ) private {\n        IERC165 caller = IERC165(_nftContractAddress);\n\n        if (is1155Interface(caller)) {\n            IERC1155 call1155 = IERC1155(_nftContractAddress);\n            _safeCall1155(\n                call1155,\n                abi.encodeWithSelector(\n                    call1155.safeTransferFrom.selector,\n                    from,\n                    to,\n                    _tokenId,\n                    amount,\n                    \"\"\n                )\n            );\n        } else {\n            IERC721 call721 = IERC721(_nftContractAddress);\n            _safeCall721(\n                call721,\n                abi.encodeWithSignature(\n                    \"safeTransferFrom(address,address,uint256\",\n                    from,\n                    to,\n                    _tokenId\n                )\n            );\n        }\n    }\n\n    function remove(address el) public {\n        uint256 index;\n        for (index = 0; index < currentActions.length; index++) {\n            if (currentActions[index] == el) {\n                break;\n            }\n        }\n        if (index == 0 && currentActions[0] != el) return;\n\n        if (index >= currentActions.length) return;\n        if (index == 0) {\n            currentActions.pop();\n        } else {\n            currentActions[index] = currentActions[currentActions.length - 1];\n            currentActions.pop();\n        }\n        // delete currentActions[currentActions.length];\n    }\n\n    function getMinPrice(address bidId)\n        public\n        view\n        returns (\n            uint256,\n            address,\n            uint256\n        )\n    {\n        return (\n            autions[bidId].minPrice,\n            autions[bidId].minPriceAddress,\n            autions[bidId].despoitAmount\n        );\n    }\n\n    //\n    function bid(address bidId) external payable {\n        require(autionOngoing(bidId), \"n1\");\n        Auction storage aution = autions[bidId];\n        require(msg.value >= aution.startPrice, \"n2\");\n        require(aution.status == Status.Ongoing, \"n3\");\n        // require(msg.value  > aution.minPrice,\"n3\");\n        if (aution.bidAmount < aution.amount) {\n            if (aution.minPrice == 0 || aution.minPrice > msg.value) {\n                aution.minPrice = msg.value;\n                aution.minPriceAddress = msg.sender;\n            }\n            aution.bidAmount += 1;\n            if (aution.biders[msg.sender] > msg.value) {\n                revert(\"n4\");\n            }\n            if (aution.biders[msg.sender] > 0) {\n                //  \n                payable(msg.sender).transfer(aution.biders[msg.sender]);\n            }\n            aution.biders[msg.sender] = msg.value;\n            aution.list[aution.bidAmount] = msg.sender;\n        } else {\n            if (\n                aution.minPrice > msg.value ||\n                aution.minPriceAddress == address(0)\n            ) {\n                revert(\"min price less !\");\n            }\n            uint256 index;\n            for (uint256 i = 1; i <= aution.bidAmount; i++) {\n                if (aution.list[i] == aution.minPriceAddress) {\n                    index = i;\n                }\n            }\n\n            aution.list[index] = msg.sender;\n            delete aution.biders[aution.minPriceAddress];\n            if (aution.biders[msg.sender] > msg.value) {\n                revert(\"n4\");\n            }\n            if (aution.biders[msg.sender] > 0) {\n                //  \n                payable(msg.sender).transfer(aution.biders[msg.sender]);\n            }\n            aution.biders[msg.sender] = msg.value;\n            uint256 _min_price = aution.biders[aution.list[1]];\n            for (uint256 i = 1; i <= aution.bidAmount; i++) {\n                if (aution.biders[aution.list[i]] < _min_price) {\n                    _min_price = aution.biders[aution.list[i]];\n                    index = i;\n                }\n            }\n            aution.minPrice = _min_price;\n            aution.minPriceAddress = aution.list[index];\n            // aution.bidAmount += 1;\n        }\n        emit Bid(bidId, msg.value, msg.sender, aution.bidAmount);\n    }\n\n    //\n    function overAution(address bidId) external {\n        require(autionOverTime(bidId), \"n1\");\n\n        Auction storage aution = autions[bidId];\n        if (aution.bidAmount < aution.amount) {\n            aution.status = Status.Fail;\n            for (uint256 i = 1; i <= aution.bidAmount; i++) {\n                refunds[aution.list[i]] +=\n                    refunds[aution.list[i]] +\n                    aution.biders[aution.list[i]] +\n                    aution.despoitAmount /\n                    aution.bidAmount;\n                delete aution.biders[aution.list[i]];\n                delete aution.list[i];\n            }\n            safeTransferFromCall(\n                aution.nftContractAddress,\n                address(this),\n                aution.nftSeller,\n                aution.tokenId,\n                aution.amount\n            );\n            remove(bidId);\n        } else {\n            aution.status = Status.Success;\n        }\n        emit Over(bidId, aution.status);\n    }\n\n    // \n    function autionConfirm(address bidId) external {\n        Auction storage aution = autions[bidId];\n        require(msg.sender == aution.nftSeller, \"n1\");\n        require(aution.status == Status.Success, \"n2\");\n        for (uint256 i = 1; i <= aution.bidAmount; i++) {\n            // \n            if (aution.biders[aution.list[i]] > aution.minPrice) {\n                refunds[aution.list[i]] =\n                    aution.biders[aution.list[i]] +\n                    refunds[aution.list[i]] -\n                    aution.minPrice;\n            }\n            safeTransferFromCall(\n                aution.nftContractAddress,\n                address(this),\n                aution.list[i],\n                aution.tokenId,\n                1\n            ); //NFT\n        }\n        refunds[aution.nftSeller] =\n            refunds[aution.nftSeller] +\n            aution.minPrice *\n            aution.bidAmount +\n            aution.despoitAmount;\n        remove(bidId);\n        emit Settle(\n            bidId,\n            aution.nftContractAddress,\n            aution.tokenId,\n            aution.minPrice\n        );\n    }\n\n    function getAutionApplyNumber(address bidId) public view returns (uint256) {\n        return autions[bidId].bidAmount;\n    }\n\n    //\n    function widthdraw() external {\n        require(refunds[msg.sender] > 0, \"n1\");\n        uint256 amount = refunds[msg.sender];\n        refunds[msg.sender] = 0;\n        payable(msg.sender).transfer(amount);\n        emit Widthdraw(msg.sender, amount);\n    }\n\n    function onERC1155Received(\n        address operator,\n        address from,\n        uint256 id,\n        uint256 value,\n        bytes calldata data\n    ) external pure override returns (bytes4) {\n        return this.onERC1155Received.selector;\n    }\n\n    function onERC1155BatchReceived(\n        address operator,\n        address from,\n        uint256[] calldata ids,\n        uint256[] calldata values,\n        bytes calldata data\n    ) external pure override returns (bytes4) {\n        return this.onERC1155BatchReceived.selector;\n    }\n\n    function onERC721Received(\n        address operator,\n        address from,\n        uint256 tokenId,\n        bytes calldata data\n    ) external pure override returns (bytes4) {\n        return this.onERC721Received.selector;\n    }\n\n    function supportsInterface(bytes4 interfaceId)\n        public\n        view\n        override(ERC165, IERC165)\n        returns (bool)\n    {\n        return\n            interfaceId == type(IERC1155Receiver).interfaceId ||\n            super.supportsInterface(interfaceId);\n    }\n}\n",
  "sourcePath": "/Users/libaozhong/study/solidity/aution/contracts/NFTAuction.sol",
  "compiler": {
    "name": "solc",
    "version": "0.8.9+commit.e5eed63a.Emscripten.clang"
  },
  "schemaVersion": "3.4.5",
  "updatedAt": "2022-06-18T04:57:43.199Z",
  "devdoc": {
    "kind": "dev",
    "methods": {
      "onERC1155BatchReceived(address,address,uint256[],uint256[],bytes)": {
        "details": "Handles the receipt of a multiple ERC1155 token types. This function is called at the end of a `safeBatchTransferFrom` after the balances have been updated. NOTE: To accept the transfer(s), this must return `bytes4(keccak256(\"onERC1155BatchReceived(address,address,uint256[],uint256[],bytes)\"))` (i.e. 0xbc197c81, or its own function selector).",
        "params": {
          "data": "Additional data with no specified format",
          "from": "The address which previously owned the token",
          "ids": "An array containing ids of each token being transferred (order and length must match values array)",
          "operator": "The address which initiated the batch transfer (i.e. msg.sender)",
          "values": "An array containing amounts of each token being transferred (order and length must match ids array)"
        },
        "returns": {
          "_0": "`bytes4(keccak256(\"onERC1155BatchReceived(address,address,uint256[],uint256[],bytes)\"))` if transfer is allowed"
        }
      },
      "onERC1155Received(address,address,uint256,uint256,bytes)": {
        "details": "Handles the receipt of a single ERC1155 token type. This function is called at the end of a `safeTransferFrom` after the balance has been updated. NOTE: To accept the transfer, this must return `bytes4(keccak256(\"onERC1155Received(address,address,uint256,uint256,bytes)\"))` (i.e. 0xf23a6e61, or its own function selector).",
        "params": {
          "data": "Additional data with no specified format",
          "from": "The address which previously owned the token",
          "id": "The ID of the token being transferred",
          "operator": "The address which initiated the transfer (i.e. msg.sender)",
          "value": "The amount of tokens being transferred"
        },
        "returns": {
          "_0": "`bytes4(keccak256(\"onERC1155Received(address,address,uint256,uint256,bytes)\"))` if transfer is allowed"
        }
      },
      "onERC721Received(address,address,uint256,bytes)": {
        "details": "Whenever an {IERC721} `tokenId` token is transferred to this contract via {IERC721-safeTransferFrom} by `operator` from `from`, this function is called. It must return its Solidity selector to confirm the token transfer. If any other value is returned or the interface is not implemented by the recipient, the transfer will be reverted. The selector can be obtained in Solidity with `IERC721Receiver.onERC721Received.selector`."
      }
    },
    "version": 1
  },
  "userdoc": {
    "kind": "user",
    "methods": {},
    "version": 1
  }
}