{
  "contractName": "NFTAuction",
  "abi": [
    {
      "inputs": [],
      "stateMutability": "nonpayable",
      "type": "constructor"
    },
    {
      "anonymous": false,
      "inputs": [
        {
          "indexed": true,
          "internalType": "address",
          "name": "bidAddress",
          "type": "address"
        },
        {
          "indexed": false,
          "internalType": "uint256",
          "name": "price",
          "type": "uint256"
        },
        {
          "indexed": false,
          "internalType": "address",
          "name": "bider",
          "type": "address"
        },
        {
          "indexed": false,
          "internalType": "uint256",
          "name": "count",
          "type": "uint256"
        }
      ],
      "name": "Bid",
      "type": "event"
    },
    {
      "anonymous": false,
      "inputs": [
        {
          "indexed": true,
          "internalType": "address",
          "name": "bidAddress",
          "type": "address"
        },
        {
          "indexed": false,
          "internalType": "enum NFTAuction.Status",
          "name": "status",
          "type": "uint8"
        }
      ],
      "name": "Over",
      "type": "event"
    },
    {
      "anonymous": false,
      "inputs": [
        {
          "indexed": true,
          "internalType": "address",
          "name": "contractAddresss",
          "type": "address"
        },
        {
          "indexed": false,
          "internalType": "address",
          "name": "from",
          "type": "address"
        },
        {
          "indexed": false,
          "internalType": "address",
          "name": "to",
          "type": "address"
        },
        {
          "indexed": false,
          "internalType": "uint256",
          "name": "tokenid",
          "type": "uint256"
        },
        {
          "indexed": false,
          "internalType": "uint256",
          "name": "amount",
          "type": "uint256"
        }
      ],
      "name": "PublishSuccess",
      "type": "event"
    },
    {
      "anonymous": false,
      "inputs": [
        {
          "indexed": true,
          "internalType": "address",
          "name": "bidAddress",
          "type": "address"
        },
        {
          "indexed": true,
          "internalType": "address",
          "name": "contractAddresss",
          "type": "address"
        },
        {
          "indexed": false,
          "internalType": "uint256",
          "name": "tokenId",
          "type": "uint256"
        },
        {
          "indexed": false,
          "internalType": "uint256",
          "name": "minPrice",
          "type": "uint256"
        }
      ],
      "name": "Settle",
      "type": "event"
    },
    {
      "anonymous": false,
      "inputs": [
        {
          "indexed": true,
          "internalType": "address",
          "name": "to",
          "type": "address"
        },
        {
          "indexed": false,
          "internalType": "uint256",
          "name": "amount",
          "type": "uint256"
        }
      ],
      "name": "Widthdraw",
      "type": "event"
    },
    {
      "inputs": [
        {
          "internalType": "address",
          "name": "",
          "type": "address"
        }
      ],
      "name": "autions",
      "outputs": [
        {
          "internalType": "uint128",
          "name": "auctionBidPeriod",
          "type": "uint128"
        },
        {
          "internalType": "uint128",
          "name": "auctionEnd",
          "type": "uint128"
        },
        {
          "internalType": "uint256",
          "name": "despoitAmount",
          "type": "uint256"
        },
        {
          "internalType": "uint256",
          "name": "startPrice",
          "type": "uint256"
        },
        {
          "internalType": "uint256",
          "name": "minPrice",
          "type": "uint256"
        },
        {
          "internalType": "enum NFTAuction.Status",
          "name": "status",
          "type": "uint8"
        },
        {
          "internalType": "address",
          "name": "minPriceAddress",
          "type": "address"
        },
        {
          "internalType": "uint256",
          "name": "tokenId",
          "type": "uint256"
        },
        {
          "internalType": "address",
          "name": "nftSeller",
          "type": "address"
        },
        {
          "internalType": "address",
          "name": "nftContractAddress",
          "type": "address"
        },
        {
          "internalType": "uint256",
          "name": "amount",
          "type": "uint256"
        },
        {
          "internalType": "uint256",
          "name": "bidAmount",
          "type": "uint256"
        }
      ],
      "stateMutability": "view",
      "type": "function"
    },
    {
      "inputs": [
        {
          "internalType": "uint256",
          "name": "",
          "type": "uint256"
        }
      ],
      "name": "currentActions",
      "outputs": [
        {
          "internalType": "address",
          "name": "",
          "type": "address"
        }
      ],
      "stateMutability": "view",
      "type": "function"
    },
    {
      "inputs": [],
      "name": "defaultAssestLockAmount",
      "outputs": [
        {
          "internalType": "uint256",
          "name": "",
          "type": "uint256"
        }
      ],
      "stateMutability": "view",
      "type": "function"
    },
    {
      "inputs": [],
      "name": "defaultAuctionBidPeriod",
      "outputs": [
        {
          "internalType": "uint32",
          "name": "",
          "type": "uint32"
        }
      ],
      "stateMutability": "view",
      "type": "function"
    },
    {
      "inputs": [
        {
          "internalType": "address",
          "name": "",
          "type": "address"
        }
      ],
      "name": "refunds",
      "outputs": [
        {
          "internalType": "uint256",
          "name": "",
          "type": "uint256"
        }
      ],
      "stateMutability": "view",
      "type": "function"
    },
    {
      "inputs": [
        {
          "internalType": "address",
          "name": "",
          "type": "address"
        }
      ],
      "name": "userAution",
      "outputs": [
        {
          "internalType": "address",
          "name": "",
          "type": "address"
        }
      ],
      "stateMutability": "view",
      "type": "function"
    },
    {
      "inputs": [],
      "name": "getActions",
      "outputs": [
        {
          "internalType": "address[]",
          "name": "",
          "type": "address[]"
        }
      ],
      "stateMutability": "view",
      "type": "function"
    },
    {
      "inputs": [
        {
          "internalType": "address",
          "name": "_nftContractAddress",
          "type": "address"
        },
        {
          "internalType": "uint256",
          "name": "_tokenId",
          "type": "uint256"
        },
        {
          "internalType": "uint128",
          "name": "_startPrice",
          "type": "uint128"
        },
        {
          "internalType": "uint256",
          "name": "_amount",
          "type": "uint256"
        },
        {
          "internalType": "string",
          "name": "_uri",
          "type": "string"
        }
      ],
      "name": "publishAution",
      "outputs": [],
      "stateMutability": "payable",
      "type": "function"
    },
    {
      "inputs": [
        {
          "internalType": "address",
          "name": "bidId",
          "type": "address"
        }
      ],
      "name": "bid",
      "outputs": [],
      "stateMutability": "payable",
      "type": "function"
    },
    {
      "inputs": [
        {
          "internalType": "address",
          "name": "bidId",
          "type": "address"
        }
      ],
      "name": "overAution",
      "outputs": [],
      "stateMutability": "nonpayable",
      "type": "function"
    },
    {
      "inputs": [
        {
          "internalType": "address",
          "name": "bidId",
          "type": "address"
        }
      ],
      "name": "autionConfirm",
      "outputs": [],
      "stateMutability": "nonpayable",
      "type": "function"
    },
    {
      "inputs": [
        {
          "internalType": "address",
          "name": "bidId",
          "type": "address"
        }
      ],
      "name": "getAutionApplyNumber",
      "outputs": [
        {
          "internalType": "uint256",
          "name": "",
          "type": "uint256"
        }
      ],
      "stateMutability": "view",
      "type": "function"
    },
    {
      "inputs": [],
      "name": "widthdraw",
      "outputs": [],
      "stateMutability": "nonpayable",
      "type": "function"
    },
    {
      "inputs": [
        {
          "internalType": "address",
          "name": "operator",
          "type": "address"
        },
        {
          "internalType": "address",
          "name": "from",
          "type": "address"
        },
        {
          "internalType": "uint256",
          "name": "id",
          "type": "uint256"
        },
        {
          "internalType": "uint256",
          "name": "value",
          "type": "uint256"
        },
        {
          "internalType": "bytes",
          "name": "data",
          "type": "bytes"
        }
      ],
      "name": "onERC1155Received",
      "outputs": [
        {
          "internalType": "bytes4",
          "name": "",
          "type": "bytes4"
        }
      ],
      "stateMutability": "pure",
      "type": "function"
    },
    {
      "inputs": [
        {
          "internalType": "address",
          "name": "operator",
          "type": "address"
        },
        {
          "internalType": "address",
          "name": "from",
          "type": "address"
        },
        {
          "internalType": "uint256[]",
          "name": "ids",
          "type": "uint256[]"
        },
        {
          "internalType": "uint256[]",
          "name": "values",
          "type": "uint256[]"
        },
        {
          "internalType": "bytes",
          "name": "data",
          "type": "bytes"
        }
      ],
      "name": "onERC1155BatchReceived",
      "outputs": [
        {
          "internalType": "bytes4",
          "name": "",
          "type": "bytes4"
        }
      ],
      "stateMutability": "pure",
      "type": "function"
    },
    {
      "inputs": [
        {
          "internalType": "address",
          "name": "operator",
          "type": "address"
        },
        {
          "internalType": "address",
          "name": "from",
          "type": "address"
        },
        {
          "internalType": "uint256",
          "name": "tokenId",
          "type": "uint256"
        },
        {
          "internalType": "bytes",
          "name": "data",
          "type": "bytes"
        }
      ],
      "name": "onERC721Received",
      "outputs": [
        {
          "internalType": "bytes4",
          "name": "",
          "type": "bytes4"
        }
      ],
      "stateMutability": "pure",
      "type": "function"
    },
    {
      "inputs": [
        {
          "internalType": "bytes4",
          "name": "interfaceId",
          "type": "bytes4"
        }
      ],
      "name": "supportsInterface",
      "outputs": [
        {
          "internalType": "bool",
          "name": "",
          "type": "bool"
        }
      ],
      "stateMutability": "view",
      "type": "function"
    }
  ],
  "bytecode": "0x608060405234801561001057600080fd5b506005805463ffffffff191662015180179055670de0b6b3a7640000600655611f428061003e6000396000f3fe6080604052600436106100fe5760003560e01c80639cf5453d11610095578063bc3da53511610064578063bc3da535146103aa578063c18c49df146103d7578063ea965904146103ed578063f23a6e6114610400578063fac6d5fd1461042d57600080fd5b80639cf5453d146102d35780639d1278f6146102e6578063b35eead81461032d578063bc197c811461037b57600080fd5b80634f626286116100d15780634f6262861461025a578063504d080b1461027c57806352b50a2a1461029e5780636f45a27a146102b357600080fd5b806301ffc9a714610103578063150b7a0214610138578063186779d51461017d578063260874b8146101af575b600080fd5b34801561010f57600080fd5b5061012361011e366004611858565b61044d565b60405190151581526020015b60405180910390f35b34801561014457600080fd5b506101646101533660046118ee565b630a85bd0160e11b95945050505050565b6040516001600160e01b0319909116815260200161012f565b34801561018957600080fd5b5060055461019a9063ffffffff1681565b60405163ffffffff909116815260200161012f565b3480156101bb57600080fd5b506102426101ca36600461195d565b600360208190526000918252604090912080546001820154600283015493830154600484015460058501546006860154600787015460088801546009909801546001600160801b038089169a600160801b909904169896979660ff8616956001600160a01b036101009091048116959481169316918c565b60405161012f9c9b9a999897969594939291906119b0565b34801561026657600080fd5b5061027a61027536600461195d565b610484565b005b34801561028857600080fd5b506102916106b9565b60405161012f9190611a31565b3480156102aa57600080fd5b5061027a61071b565b3480156102bf57600080fd5b5061027a6102ce36600461195d565b6107c1565b61027a6102e136600461195d565b6109ad565b3480156102f257600080fd5b5061031f61030136600461195d565b6001600160a01b031660009081526003602052604090206009015490565b60405190815260200161012f565b34801561033957600080fd5b5061036361034836600461195d565b6004602052600090815260409020546001600160a01b031681565b6040516001600160a01b03909116815260200161012f565b34801561038757600080fd5b50610164610396366004611ac3565b63bc197c8160e01b98975050505050505050565b3480156103b657600080fd5b5061031f6103c536600461195d565b60016020526000908152604090205481565b3480156103e357600080fd5b5061031f60065481565b61027a6103fb366004611b94565b610e34565b34801561040c57600080fd5b5061016461041b366004611c88565b63f23a6e6160e01b9695505050505050565b34801561043957600080fd5b50610363610448366004611d00565b611122565b60006001600160e01b03198216630271189760e51b148061047e57506301ffc9a760e01b6001600160e01b03198316145b92915050565b6001600160a01b038181166000908152600360205260409020600681015490911633146104cc5760405162461bcd60e51b81526004016104c390611d19565b60405180910390fd5b6002600482015460ff1660028111156104e7576104e7611978565b146105045760405162461bcd60e51b81526004016104c390611d35565b60015b816009015481116105f75760038201546000828152600a840160209081526040808320546001600160a01b03168352600b860190915290205411156105e55760038201546000828152600a840160209081526040808320546001600160a01b031683526001825280832054600b8701909252909120546105879190611d67565b6105919190611d7f565b6000828152600a84016020818152604080842080546001600160a01b03908116865260018085529286209690965560078801549487905292909152905460058601546105e59493841693309392169161114c565b806105ef81611d96565b915050610507565b508060010154816009015482600301546106119190611db1565b60068301546001600160a01b03166000908152600160205260409020546106389190611d67565b6106429190611d67565b60068201546001600160a01b0390811660009081526001602090815260409182902093909355600784015460058501546003860154835191825294810194909452821692918516917fddd2b8bfe59e2aa6d76b0600fa7f6e161b9ece46b47a20197e2755899e7e8837910160405180910390a35050565b6060600280548060200260200160405190810160405280929190818152602001828054801561071157602002820191906000526020600020905b81546001600160a01b031681526001909101906020018083116106f3575b5050505050905090565b336000908152600160205260409020546107475760405162461bcd60e51b81526004016104c390611d19565b33600081815260016020526040808220805490839055905190929183156108fc02918491818181858888f19350505050158015610788573d6000803e3d6000fd5b5060405181815233907f0594f701315aa9903d34cb81c1206524a1305ee899cdb40520e4ea3e45d170fb9060200160405180910390a250565b6107ca8161123a565b6107e65760405162461bcd60e51b81526004016104c390611d19565b6001600160a01b038116600090815260036020526040902060088101546009820154101561094f5760048101805460ff191660019081179091555b8160090154811161091257816009015482600101546108409190611dd0565b6000828152600a840160209081526040808320546001600160a01b03168352600b860182528083205460019092529091205461087c9190611d67565b6108869190611d67565b6000828152600a840160209081526040808320546001600160a01b031683526001909152812080549091906108bc908490611d67565b90915550506000818152600a83016020818152604080842080546001600160a01b03168552600b87018352908420849055928490525280546001600160a01b03191690558061090a81611d96565b915050610821565b506007810154600682015460058301546008840154610941936001600160a01b0390811693309391169161114c565b61094a826112d6565b61095f565b60048101805460ff191660021790555b60048101546040516001600160a01b038416917fea6f8f8d312e05e6e661973faebac4f539ccdd7146ef8178056e1cccc8ecab9c916109a19160ff1690611df2565b60405180910390a25050565b6109b681611471565b6109d25760405162461bcd60e51b81526004016104c390611d19565b6001600160a01b03811660009081526003602052604090206002810154341015610a0e5760405162461bcd60e51b81526004016104c390611d35565b6000600482015460ff166002811115610a2957610a29611978565b14610a5b5760405162461bcd60e51b81526020600482015260026024820152616e3360f01b60448201526064016104c3565b806008015481600901541015610b7e5760038101541580610a7f5750348160030154115b15610aa457346003820155600481018054610100600160a81b03191633610100021790555b6001816009016000828254610ab99190611d67565b9091555050336000908152600b82016020526040902054341015610aef5760405162461bcd60e51b81526004016104c390611e00565b336000908152600b8201602052604090205415610b4157336000818152600b8301602052604080822054905181156108fc0292818181858888f19350505050158015610b3f573d6000803e3d6000fd5b505b336000818152600b83016020908152604080832034905560098501548352600a8501909152902080546001600160a01b0319169091179055610de6565b3481600301541180610ba05750600481015461010090046001600160a01b0316155b15610be05760405162461bcd60e51b815260206004820152601060248201526f6d696e207072696365206c657373202160801b60448201526064016104c3565b600060015b82600901548111610c345760048301546000828152600a850160205260409020546001600160a01b03908116610100909204161415610c22578091505b80610c2c81611d96565b915050610be5565b506000818152600a83016020908152604080832080546001600160a01b03191633908117909155600486015461010090046001600160a01b03168452600b8601909252808320839055908252902054341015610ca25760405162461bcd60e51b81526004016104c390611e00565b336000908152600b8301602052604090205415610cf457336000818152600b8401602052604080822054905181156108fc0292818181858888f19350505050158015610cf2573d6000803e3d6000fd5b505b336000908152600b83016020526040812034905560015b83600901548111610d88576000818152600a850160209081526040808320546001600160a01b03168352600b8701909152902054821015610d76576000818152600a850160209081526040808320546001600160a01b03168352600b87019091529020549092509050815b80610d8081611d96565b915050610d0b565b50600383018190556000828152600a840160205260408120546004850180546001600160a01b0390921661010002610100600160a81b031990921691909117905560098401805460019290610dde908490611d67565b909155505050505b600981015460408051348152336020820152908101919091526001600160a01b038316907f7f863cab1b412077be133ef69af7df0e6aca4c67ff7d89db843d601f124a025d906060016109a1565b848460036000610e4484846114c3565b6001600160a01b0316815260208101919091526040016000206002015415610e7e5760405162461bcd60e51b81526004016104c390611d35565b85610e9b5760405162461bcd60e51b81526004016104c390611d19565b6001600160a01b038716610eae57600080fd5b6000856001600160801b031611610ed75760405162461bcd60e51b81526004016104c390611e00565b60008411610f0c5760405162461bcd60e51b81526020600482015260026024820152616e3560f01b60448201526064016104c3565b600654341015610f435760405162461bcd60e51b8152602060048201526002602482015261371b60f11b60448201526064016104c3565b6000610f4f88886114c3565b33600090815260046020908152604080832080546001600160a01b0386166001600160a01b03199091168117909155600580549185526003909352922080546fffffffffffffffffffffffffffffffff191663ffffffff93841617905554919250610fbc91429116611e1c565b6001600160a01b03821660009081526003602090815260408083208054600160801b67ffffffffffffffff96909616959095026001600160801b03958616178155938a16600285015560059093018a90558181529190208551611021928701906117bf565b506001600160a01b038181166000818152600360205260408120600681018054336001600160a01b031991821681179092556007830180548216968f1696909617909555600882018a905560048201805460ff19169055346001928301556002805492830181559092527f405787fa12a823e0f2b7631cc41b3ba8828b3321ca811111fa75cd3aa3bb5ace0180549093169091179091556110c6908990308a8961114c565b60408051338152306020820152908101889052606081018690526001600160a01b038916907f4fe157a18d68728419d8ebd85f804bd08430d34d448ea61dcb719dfb69f1b87c9060800160405180910390a25050505050505050565b6002818154811061113257600080fd5b6000918252602090912001546001600160a01b0316905081565b846111568161150b565b156111d557604080516001600160a01b03878116602483015286166044820152606481018590526084810184905260a060a4820152600060c4808301919091528251808303909101815260e49091019091526020810180516001600160e01b0316637921219560e11b17905286906111cf90829061158c565b50611232565b6040516001600160a01b0380871660248301528516604482015260648101849052869061123090829060840160408051601f198184030181529190526020810180516001600160e01b0316636edaf04d60e01b1790526116a9565b505b505050505050565b6000806001600160a01b03831660009081526003602052604090206004015460ff16600281111561126d5761126d611978565b1480156112a157506001600160a01b038216600090815260036020526040902054600160801b90046001600160801b031642115b801561047e5750506001600160a01b0316600090815260036020526040902054600160801b90046001600160801b0316151590565b60005b60025481101561133257816001600160a01b03166002828154811061130057611300611e48565b6000918252602090912001546001600160a01b0316141561132057611332565b8061132a81611d96565b9150506112d9565b801580156113715750816001600160a01b0316600260008154811061135957611359611e48565b6000918252602090912001546001600160a01b031614155b1561137a575050565b6002548110611387575050565b6002805461139790600190611d7f565b815481106113a7576113a7611e48565b600091825260209091200154600280546001600160a01b0390921691839081106113d3576113d3611e48565b9060005260206000200160006101000a8154816001600160a01b0302191690836001600160a01b03160217905550600280548061141257611412611e5e565b600082815260209020810160001990810180546001600160a01b03191690550190556002805461144490600190611d7f565b8154811061145457611454611e48565b600091825260209091200180546001600160a01b03191690555050565b6001600160a01b03811660009081526003602052604081206002015415158061047e5750506001600160a01b0316600090815260036020526040902054600160801b90046001600160801b0316421090565b6040516bffffffffffffffffffffffff19606084901b1660208201526034810182905260009060540160408051601f1981840301815291905280516020909101209392505050565b6040516301ffc9a760e01b8152636cdb3d1360e11b60048201526000906001600160a01b038316906301ffc9a79060240160206040518083038186803b15801561155457600080fd5b505afa158015611568573d6000803e3d6000fd5b505050506040513d601f19601f8201168201806040525081019061047e9190611e74565b600080836001600160a01b0316836040516115a79190611e96565b6000604051808303816000865af19150503d80600081146115e4576040519150601f19603f3d011682016040523d82523d6000602084013e6115e9565b606091505b5091509150816116325760405162461bcd60e51b8152602060048201526014602482015273115490cc4c4d4d4e8818d85b1b0819985a5b195960621b60448201526064016104c3565b8051156116a3578080602001905181019061164d9190611e74565b6116a35760405162461bcd60e51b815260206004820152602160248201527f4552433135353a206f7065726174696f6e20646964206e6f74207375636365656044820152601960fa1b60648201526084016104c3565b50505050565b600080836001600160a01b0316836040516116c49190611e96565b6000604051808303816000865af19150503d8060008114611701576040519150601f19603f3d011682016040523d82523d6000602084013e611706565b606091505b50915091508161174e5760405162461bcd60e51b8152602060048201526013602482015272115490cdcc8c4e8818d85b1b0819985a5b1959606a1b60448201526064016104c3565b8051156116a357808060200190518101906117699190611e74565b6116a35760405162461bcd60e51b815260206004820152602160248201527f4552433732313a206f7065726174696f6e20646964206e6f74207375636365656044820152601960fa1b60648201526084016104c3565b8280546117cb90611ed1565b90600052602060002090601f0160209004810192826117ed5760008555611833565b82601f1061180657805160ff1916838001178555611833565b82800160010185558215611833579182015b82811115611833578251825591602001919060010190611818565b5061183f929150611843565b5090565b5b8082111561183f5760008155600101611844565b60006020828403121561186a57600080fd5b81356001600160e01b03198116811461188257600080fd5b9392505050565b80356001600160a01b03811681146118a057600080fd5b919050565b60008083601f8401126118b757600080fd5b50813567ffffffffffffffff8111156118cf57600080fd5b6020830191508360208285010111156118e757600080fd5b9250929050565b60008060008060006080868803121561190657600080fd5b61190f86611889565b945061191d60208701611889565b935060408601359250606086013567ffffffffffffffff81111561194057600080fd5b61194c888289016118a5565b969995985093965092949392505050565b60006020828403121561196f57600080fd5b61188282611889565b634e487b7160e01b600052602160045260246000fd5b600381106119ac57634e487b7160e01b600052602160045260246000fd5b9052565b6001600160801b038d811682528c166020820152604081018b9052606081018a90526080810189905261018081016119eb60a083018a61198e565b6001600160a01b0397881660c083015260e08201969096529386166101008501529190941661012083015261014082019390935261016001919091529695505050505050565b6020808252825182820181905260009190848201906040850190845b81811015611a725783516001600160a01b031683529284019291840191600101611a4d565b50909695505050505050565b60008083601f840112611a9057600080fd5b50813567ffffffffffffffff811115611aa857600080fd5b6020830191508360208260051b85010111156118e757600080fd5b60008060008060008060008060a0898b031215611adf57600080fd5b611ae889611889565b9750611af660208a01611889565b9650604089013567ffffffffffffffff80821115611b1357600080fd5b611b1f8c838d01611a7e565b909850965060608b0135915080821115611b3857600080fd5b611b448c838d01611a7e565b909650945060808b0135915080821115611b5d57600080fd5b50611b6a8b828c016118a5565b999c989b5096995094979396929594505050565b634e487b7160e01b600052604160045260246000fd5b600080600080600060a08688031215611bac57600080fd5b611bb586611889565b94506020860135935060408601356001600160801b0381168114611bd857600080fd5b925060608601359150608086013567ffffffffffffffff80821115611bfc57600080fd5b818801915088601f830112611c1057600080fd5b813581811115611c2257611c22611b7e565b604051601f8201601f19908116603f01168101908382118183101715611c4a57611c4a611b7e565b816040528281528b6020848701011115611c6357600080fd5b8260208601602083013760006020848301015280955050505050509295509295909350565b60008060008060008060a08789031215611ca157600080fd5b611caa87611889565b9550611cb860208801611889565b94506040870135935060608701359250608087013567ffffffffffffffff811115611ce257600080fd5b611cee89828a016118a5565b979a9699509497509295939492505050565b600060208284031215611d1257600080fd5b5035919050565b6020808252600290820152616e3160f01b604082015260600190565b602080825260029082015261371960f11b604082015260600190565b634e487b7160e01b600052601160045260246000fd5b60008219821115611d7a57611d7a611d51565b500190565b600082821015611d9157611d91611d51565b500390565b6000600019821415611daa57611daa611d51565b5060010190565b6000816000190483118215151615611dcb57611dcb611d51565b500290565b600082611ded57634e487b7160e01b600052601260045260246000fd5b500490565b6020810161047e828461198e565b6020808252600290820152611b8d60f21b604082015260600190565b600067ffffffffffffffff808316818516808303821115611e3f57611e3f611d51565b01949350505050565b634e487b7160e01b600052603260045260246000fd5b634e487b7160e01b600052603160045260246000fd5b600060208284031215611e8657600080fd5b8151801515811461188257600080fd5b6000825160005b81811015611eb75760208186018101518583015201611e9d565b81811115611ec6576000828501525b509190910192915050565b600181811c90821680611ee557607f821691505b60208210811415611f0657634e487b7160e01b600052602260045260246000fd5b5091905056fea26469706673582212204420708100125de1de4d9d52ba4f417bc8a3e15c68564c38f66f05b6080e692264736f6c63430008090033",
  "immutableReferences": {},
  "source": "// SPDX-License-Identifier: MIT\npragma solidity >=0.4.21 <8.10.0;\n\nimport \"@openzeppelin/contracts/token/ERC721/IERC721.sol\";\nimport \"@openzeppelin/contracts/token/ERC1155/IERC1155.sol\";\nimport \"@openzeppelin/contracts/token/ERC721/IERC721Receiver.sol\";\nimport \"@openzeppelin/contracts/token/ERC20/IERC20.sol\";\nimport \"@openzeppelin/contracts/token/ERC1155/IERC1155Receiver.sol\";\nimport \"@openzeppelin/contracts/utils/introspection/ERC165.sol\";\n\ncontract NFTAuction is IERC1155Receiver, IERC721Receiver, ERC165 {\n    bytes4 private constant CONTRACT1155INTERFACE = 0xd9b67a26;\n    enum Status {\n        Ongoing,\n        Fail,\n        Success\n    }\n\n    //\n    struct Auction {\n        //map token ID to\n        uint128 auctionBidPeriod; // \n        uint128 auctionEnd; //\n        uint256 despoitAmount;\n        uint256 startPrice;\n        uint256 minPrice; //\n        Status status;\n        address minPriceAddress;\n        uint256 tokenId; //NFT tokenId\n        address nftSeller; //\n        address nftContractAddress; // NFT\n        uint256 amount; //token 1721 1 1155\n        uint256 bidAmount;\n        mapping(uint256 => address) list; //map\n        mapping(address => uint256) biders; //\n    }\n    mapping(address => string) tokenUris;\n\n    mapping(address => uint256) public refunds; //\n    address[] public currentActions;\n\n    mapping(address => Auction) public autions; //id \n    mapping(address => address) public userAution; //id\n\n    uint32 public defaultAuctionBidPeriod; //\n    uint256 public defaultAssestLockAmount; //\n\n    event PublishSuccess(\n        address indexed contractAddresss,\n        address from,\n        address to,\n        uint256 tokenid,\n        uint256 amount\n    );\n\n    event Bid(\n        address indexed bidAddress,\n        uint256 price,\n        address bider,\n        uint256 count\n    );\n\n    event Over(address indexed bidAddress, Status status);\n\n    event Settle(\n        address indexed bidAddress,\n        address indexed contractAddresss,\n        uint256 tokenId,\n        uint256 minPrice\n    );\n    event Widthdraw(address indexed to, uint256 amount);\n\n    constructor() {\n        defaultAuctionBidPeriod = 86400; //1 day\n        defaultAssestLockAmount = 1 ether;\n    }\n\n    modifier autionNotStart(address _nftContractAddress, uint256 _tokenId) {\n        require(\n            autions[autionAddress(_nftContractAddress, _tokenId)].startPrice ==\n                0,\n            \"n2\"\n        );\n        _;\n    }\n\n    function autionOngoing(address bidAddress) internal view returns (bool) {\n        return\n            autions[bidAddress].startPrice != 0 ||\n            block.timestamp < autions[bidAddress].auctionEnd;\n    }\n\n    function getActions() public view returns (address[] memory) {\n        return currentActions;\n    }\n\n    function autionOverTime(address bidAddress) internal view returns (bool) {\n        return\n            autions[bidAddress].status == Status.Ongoing &&\n            block.timestamp > autions[bidAddress].auctionEnd &&\n            autions[bidAddress].auctionEnd != 0;\n    }\n\n    function autionAddress(address _nftContractAddress, uint256 _tokenId)\n        internal\n        pure\n        returns (address)\n    {\n        return\n            address(\n                uint160(\n                    uint256(\n                        keccak256(\n                            abi.encodePacked(_nftContractAddress, _tokenId)\n                        )\n                    )\n                )\n            );\n    }\n\n    function _safeCall721(IERC721 token, bytes memory data) private {\n        (bool success, bytes memory returndata) = address(token).call(data);\n        require(success, \"ERC721: call failed\");\n\n        if (returndata.length > 0) {\n            require(\n                abi.decode(returndata, (bool)),\n                \"ERC721: operation did not succeed\"\n            );\n        }\n    }\n\n    function _safeCall1155(IERC1155 token, bytes memory data) private {\n        (bool success, bytes memory returndata) = address(token).call(data);\n        require(success, \"ERC1155: call failed\");\n\n        if (returndata.length > 0) {\n            require(\n                abi.decode(returndata, (bool)),\n                \"ERC155: operation did not succeed\"\n            );\n        }\n    }\n\n    function is1155Interface(IERC165 erc165) private view returns (bool) {\n        return erc165.supportsInterface(CONTRACT1155INTERFACE);\n    }\n\n    // \n    function publishAution(\n        address _nftContractAddress,\n        uint256 _tokenId,\n        uint128 _startPrice,\n        uint256 _amount,\n        string memory _uri\n    ) external payable autionNotStart(_nftContractAddress, _tokenId) {\n        require(_tokenId != 0, \"n1\");\n        require(_nftContractAddress != address(0));\n        require(_startPrice > 0, \"n4\");\n        require(_amount > 0, \"n5\");\n        require(msg.value >= defaultAssestLockAmount, \"n6\");\n        address _aution = autionAddress(_nftContractAddress, _tokenId);\n        userAution[msg.sender] = _aution;\n        autions[_aution].auctionBidPeriod = defaultAuctionBidPeriod;\n        autions[_aution].auctionEnd =\n            defaultAuctionBidPeriod +\n            uint64(block.timestamp);\n        autions[_aution].startPrice = _startPrice;\n        autions[_aution].tokenId = _tokenId;\n        tokenUris[_aution] = _uri;\n        autions[_aution].nftSeller = msg.sender;\n        autions[_aution].nftContractAddress = _nftContractAddress;\n        autions[_aution].amount = _amount;\n        autions[_aution].status = Status.Ongoing;\n        autions[_aution].despoitAmount = msg.value;\n        currentActions.push(_aution);\n        safeTransferFromCall(\n            _nftContractAddress,\n            msg.sender,\n            address(this),\n            _tokenId,\n            _amount\n        );\n        emit PublishSuccess(\n            _nftContractAddress,\n            msg.sender,\n            address(this),\n            _tokenId,\n            _amount\n        );\n    }\n\n    function safeTransferFromCall(\n        address _nftContractAddress,\n        address from,\n        address to,\n        uint256 _tokenId,\n        uint256 amount\n    ) private {\n        IERC165 caller = IERC165(_nftContractAddress);\n\n        if (is1155Interface(caller)) {\n            IERC1155 call1155 = IERC1155(_nftContractAddress);\n            _safeCall1155(\n                call1155,\n                abi.encodeWithSelector(\n                    call1155.safeTransferFrom.selector,\n                    from,\n                    to,\n                    _tokenId,\n                    amount,\n                    \"\"\n                )\n            );\n        } else {\n            IERC721 call721 = IERC721(_nftContractAddress);\n            _safeCall721(\n                call721,\n                abi.encodeWithSignature(\n                    \"safeTransferFrom(address,address,uint256\",\n                    from,\n                    to,\n                    _tokenId\n                )\n            );\n        }\n    }\n\n    function remove(address el) internal {\n        uint256 index;\n        for (index = 0; index < currentActions.length; index++) {\n            if (currentActions[index] == el) {\n                break;\n            }\n        }\n        if (index == 0 && currentActions[0] != el) return;\n        if (index >= currentActions.length) return;\n        currentActions[index] = currentActions[currentActions.length - 1];\n        currentActions.pop();\n        delete currentActions[currentActions.length - 1];\n    }\n\n    //\n    function bid(address bidId) external payable {\n        require(autionOngoing(bidId), \"n1\");\n        Auction storage aution = autions[bidId];\n        require(msg.value >= aution.startPrice, \"n2\");\n        require(aution.status == Status.Ongoing, \"n3\");\n        // require(msg.value  > aution.minPrice,\"n3\");\n        if (aution.bidAmount < aution.amount) {\n            if (aution.minPrice == 0 || aution.minPrice > msg.value) {\n                aution.minPrice = msg.value;\n                aution.minPriceAddress = msg.sender;\n            }\n            aution.bidAmount += 1;\n            if (aution.biders[msg.sender] > msg.value) {\n                revert(\"n4\");\n            }\n            if (aution.biders[msg.sender] > 0) {\n                //  \n                payable(msg.sender).transfer(aution.biders[msg.sender]);\n            }\n            aution.biders[msg.sender] = msg.value;\n            aution.list[aution.bidAmount] = msg.sender;\n        } else {\n            if (\n                aution.minPrice > msg.value ||\n                aution.minPriceAddress == address(0)\n            ) {\n                revert(\"min price less !\");\n            }\n            uint256 index;\n            for (uint256 i = 1; i <= aution.bidAmount; i++) {\n                if (aution.list[i] == aution.minPriceAddress) {\n                    index = i;\n                }\n            }\n\n            aution.list[index] = msg.sender;\n            delete aution.biders[aution.minPriceAddress];\n            if (aution.biders[msg.sender] > msg.value) {\n                revert(\"n4\");\n            }\n            if (aution.biders[msg.sender] > 0) {\n                //  \n                payable(msg.sender).transfer(aution.biders[msg.sender]);\n            }\n            aution.biders[msg.sender] = msg.value;\n            uint256 _min_price = 0;\n            for (uint256 i = 1; i <= aution.bidAmount; i++) {\n                if (aution.biders[aution.list[i]] > _min_price) {\n                    _min_price = aution.biders[aution.list[i]];\n                    index = i;\n                }\n            }\n            aution.minPrice = _min_price;\n            aution.minPriceAddress = aution.list[index];\n            aution.bidAmount += 1;\n        }\n        emit Bid(bidId, msg.value, msg.sender, aution.bidAmount);\n    }\n\n    //\n    function overAution(address bidId) external {\n        require(autionOverTime(bidId), \"n1\");\n\n        Auction storage aution = autions[bidId];\n        if (aution.bidAmount < aution.amount) {\n            aution.status = Status.Fail;\n            for (uint256 i = 1; i <= aution.bidAmount; i++) {\n                refunds[aution.list[i]] +=\n                    refunds[aution.list[i]] +\n                    aution.biders[aution.list[i]] +\n                    aution.despoitAmount /\n                    aution.bidAmount;\n                delete aution.biders[aution.list[i]];\n                delete aution.list[i];\n            }\n            safeTransferFromCall(\n                aution.nftContractAddress,\n                address(this),\n                aution.nftSeller,\n                aution.tokenId,\n                aution.amount\n            );\n            remove(bidId);\n        } else {\n            aution.status = Status.Success;\n        }\n        emit Over(bidId, aution.status);\n    }\n\n    // \n    function autionConfirm(address bidId) external {\n        Auction storage aution = autions[bidId];\n        require(msg.sender == aution.nftSeller, \"n1\");\n        require(aution.status == Status.Success, \"n2\");\n        for (uint256 i = 1; i <= aution.bidAmount; i++) {\n           // \n            if (aution.biders[aution.list[i]] > aution.minPrice) {\n                refunds[aution.list[i]] =\n                    aution.biders[aution.list[i]] +\n                    refunds[aution.list[i]] -\n                    aution.minPrice;\n                safeTransferFromCall(\n                    aution.nftContractAddress,\n                    address(this),\n                    aution.list[i],\n                    aution.tokenId,\n                    1\n                ); //NFT\n            }\n        }\n        refunds[aution.nftSeller] =\n            refunds[aution.nftSeller] +\n            aution.minPrice *\n            aution.bidAmount +\n            aution.despoitAmount;\n        // remove(bidId);\n        emit Settle(\n            bidId,\n            aution.nftContractAddress,\n            aution.tokenId,\n            aution.minPrice\n        );\n    }\n\n    function getAutionApplyNumber(address bidId) public view returns (uint256) {\n        return autions[bidId].bidAmount;\n    }\n\n    //\n    function widthdraw() external {\n        require(refunds[msg.sender] > 0, \"n1\");\n        uint256 amount = refunds[msg.sender];\n        refunds[msg.sender] = 0;\n        payable(msg.sender).transfer(amount);\n        emit Widthdraw(msg.sender, amount);\n    }\n\n    function onERC1155Received(\n        address operator,\n        address from,\n        uint256 id,\n        uint256 value,\n        bytes calldata data\n    ) external pure override returns (bytes4) {\n        return this.onERC1155Received.selector;\n    }\n\n    function onERC1155BatchReceived(\n        address operator,\n        address from,\n        uint256[] calldata ids,\n        uint256[] calldata values,\n        bytes calldata data\n    ) external pure override returns (bytes4) {\n        return this.onERC1155BatchReceived.selector;\n    }\n\n    function onERC721Received(\n        address operator,\n        address from,\n        uint256 tokenId,\n        bytes calldata data\n    ) external pure override returns (bytes4) {\n        return this.onERC721Received.selector;\n    }\n\n    function supportsInterface(bytes4 interfaceId)\n        public\n        view\n        override(ERC165, IERC165)\n        returns (bool)\n    {\n        return\n            interfaceId == type(IERC1155Receiver).interfaceId ||\n            super.supportsInterface(interfaceId);\n    }\n}\n",
  "sourcePath": "/Users/libaozhong/study/solidity/aution/contracts/NFTAuction.sol",
  "compiler": {
    "name": "solc",
    "version": "0.8.9+commit.e5eed63a.Emscripten.clang"
  },
  "schemaVersion": "3.4.5",
  "updatedAt": "2022-06-17T13:10:56.981Z",
  "devdoc": {
    "kind": "dev",
    "methods": {
      "onERC1155BatchReceived(address,address,uint256[],uint256[],bytes)": {
        "details": "Handles the receipt of a multiple ERC1155 token types. This function is called at the end of a `safeBatchTransferFrom` after the balances have been updated. NOTE: To accept the transfer(s), this must return `bytes4(keccak256(\"onERC1155BatchReceived(address,address,uint256[],uint256[],bytes)\"))` (i.e. 0xbc197c81, or its own function selector).",
        "params": {
          "data": "Additional data with no specified format",
          "from": "The address which previously owned the token",
          "ids": "An array containing ids of each token being transferred (order and length must match values array)",
          "operator": "The address which initiated the batch transfer (i.e. msg.sender)",
          "values": "An array containing amounts of each token being transferred (order and length must match ids array)"
        },
        "returns": {
          "_0": "`bytes4(keccak256(\"onERC1155BatchReceived(address,address,uint256[],uint256[],bytes)\"))` if transfer is allowed"
        }
      },
      "onERC1155Received(address,address,uint256,uint256,bytes)": {
        "details": "Handles the receipt of a single ERC1155 token type. This function is called at the end of a `safeTransferFrom` after the balance has been updated. NOTE: To accept the transfer, this must return `bytes4(keccak256(\"onERC1155Received(address,address,uint256,uint256,bytes)\"))` (i.e. 0xf23a6e61, or its own function selector).",
        "params": {
          "data": "Additional data with no specified format",
          "from": "The address which previously owned the token",
          "id": "The ID of the token being transferred",
          "operator": "The address which initiated the transfer (i.e. msg.sender)",
          "value": "The amount of tokens being transferred"
        },
        "returns": {
          "_0": "`bytes4(keccak256(\"onERC1155Received(address,address,uint256,uint256,bytes)\"))` if transfer is allowed"
        }
      },
      "onERC721Received(address,address,uint256,bytes)": {
        "details": "Whenever an {IERC721} `tokenId` token is transferred to this contract via {IERC721-safeTransferFrom} by `operator` from `from`, this function is called. It must return its Solidity selector to confirm the token transfer. If any other value is returned or the interface is not implemented by the recipient, the transfer will be reverted. The selector can be obtained in Solidity with `IERC721Receiver.onERC721Received.selector`."
      }
    },
    "version": 1
  },
  "userdoc": {
    "kind": "user",
    "methods": {},
    "version": 1
  }
}